{
    "contractName": "doWhileLoop",
    "abi": [
        {
            "inputs": [],
            "name": "count",
            "outputs": [
                {
                    "internalType": "uint256",
                    "name": "",
                    "type": "uint256"
                }
            ],
            "stateMutability": "view",
            "type": "function"
        },
        {
            "inputs": [
                {
                    "internalType": "uint256",
                    "name": "_limit",
                    "type": "uint256"
                }
            ],
            "name": "increment",
            "outputs": [],
            "stateMutability": "nonpayable",
            "type": "function"
        }
    ],
    "bytecode": "6080806040523460135760ca908160188239f35b5f80fdfe60808060405260043610156011575f80fd5b5f3560e01c90816306661abd14607d5750637cf5dab014602f575f80fd5b34607957602036600319011260795760043560015b156070575b5f80545f198114605c576001015f556044565b634e487b7160e01b5f52601160045260245ffd5b805f5410604957005b5f80fd5b346079575f3660031901126079576020905f548152f3fea2646970667358221220c60148bd0b24f80cf783bc71b42e0a2820e944c9f841a3b309aabe9d127e6fa264736f6c634300081c0033",
    "sourcePath": "c:/Users/Lenovo/OneDrive/Desktop/Dev/solidity/ContolStructures/Loops.sol",
    "compiler": {
        "name": "solc",
        "version": "0.8.28+commit.7893614a"
    },
    "functionHashes": {
        "count()": "06661abd",
        "increment(uint256)": "7cf5dab0"
    },
    "gasEstimates": {
        "creation": {
            "codeDepositCost": "40400",
            "executionCost": "99",
            "totalCost": "40499"
        },
        "external": {
            "count()": "2247",
            "increment(uint256)": "infinite"
        }
    }
}