{
    "contractName": "MyContract",
    "abi": [
        {
            "inputs": [],
            "name": "message",
            "outputs": [
                {
                    "internalType": "string",
                    "name": "",
                    "type": "string"
                }
            ],
            "stateMutability": "view",
            "type": "function"
        }
    ],
    "bytecode": "608080604052346100a7575f80546001908181811c9116801561009d575b602082101461008957601f8111610060575b50507f48656c6c6f2c20536f6c6964697479210000000000000000000000000000002090556101bd90816100ac8239f35b828052601f60208420910160051c8101905b81811061007f575061002f565b8381558201610072565b634e487b7160e01b83526022600452602483fd5b90607f169061001d565b5f80fdfe6080600436101561000e575f80fd5b5f803560e01c63e21f37ce14610022575f80fd5b34610184578060031936011261018457809181549060019382851c85841695861561017a575b602094858310881461016657858596979884875291825f1461014a5750506001146100f3575b5050601f801993849203011681019381851067ffffffffffffffff8611176100df579291849192604094838652818452845191828186015281955b8387106100c75750508394508582601f949501015201168101030190f35b868101820151898801890152958101958895506100a9565b634e487b7160e01b81526041600452602490fd5b8680528592508691907f290decd9548b62a8d60345a988386fc84ba6bc95484008f6362f93160ef3e5635b828410610132575050508201015f8061006e565b8054848801860152869550879490930192810161011e565b925093505060ff191682840152151560051b8201015f8061006e565b634e487b7160e01b87526022600452602487fd5b90607f1690610048565b80fdfea2646970667358221220f5ea503449c1d3ad0522552b1c6054bb413f18a911f7c792d47f7d34a8bdfabf64736f6c63430008150033",
    "sourcePath": "/mnt/d/arsenal/solidity/MyContract.sol",
    "compiler": {
        "name": "solc",
        "version": "0.8.21+commit.d9974bed"
    },
    "functionHashes": {
        "message()": "e21f37ce"
    },
    "gasEstimates": {
        "creation": {
            "codeDepositCost": "89000",
            "executionCost": "infinite",
            "totalCost": "infinite"
        },
        "external": {
            "message()": "infinite"
        }
    }
}