{
    "contractName": "Voting",
    "abi": [
        {
            "inputs": [
                {
                    "internalType": "string[]",
                    "name": "_names",
                    "type": "string[]"
                }
            ],
            "stateMutability": "nonpayable",
            "type": "constructor"
        },
        {
            "inputs": [
                {
                    "internalType": "uint256",
                    "name": "",
                    "type": "uint256"
                }
            ],
            "name": "candidates",
            "outputs": [
                {
                    "internalType": "string",
                    "name": "name",
                    "type": "string"
                },
                {
                    "internalType": "uint256",
                    "name": "votes",
                    "type": "uint256"
                }
            ],
            "stateMutability": "view",
            "type": "function"
        },
        {
            "inputs": [],
            "name": "getWinner",
            "outputs": [
                {
                    "internalType": "string",
                    "name": "winnerName",
                    "type": "string"
                },
                {
                    "internalType": "uint256",
                    "name": "winnnerVotes",
                    "type": "uint256"
                }
            ],
            "stateMutability": "view",
            "type": "function"
        },
        {
            "inputs": [
                {
                    "internalType": "address",
                    "name": "",
                    "type": "address"
                }
            ],
            "name": "hasVoted",
            "outputs": [
                {
                    "internalType": "bool",
                    "name": "",
                    "type": "bool"
                }
            ],
            "stateMutability": "view",
            "type": "function"
        },
        {
            "inputs": [
                {
                    "internalType": "uint256",
                    "name": "_candidateIndex",
                    "type": "uint256"
                }
            ],
            "name": "vote",
            "outputs": [],
            "stateMutability": "nonpayable",
            "type": "function"
        }
    ],
    "bytecode": "608060405234610305576107318038038061001981610309565b928339810190602081830312610305578051906001600160401b03821161030557019080601f83011215610305578151916001600160401b03831161025d578260051b60208061006a818401610309565b809681520191830101918383116103055760208101915b83831061029457855f5b815181101561028557600581901b82016020015160408051919082016001600160401b0381118382101761025d576040528152602081015f81526001546801000000000000000081101561025d5760018101806001558110156102715760015f819052925180519190931b7fb10e2d527612073b26eecdfd717e6a320cf44b4afac2b0732d9fcbe2b7fa0cf601926001600160401b03821161025d578354600181811c91168015610253575b602082101461023f57601f81116101fa575b50602090601f831160011461019157918060019695949287945f92610186575b50505f19600383901b1c191690831b1783555b519101550161008b565b015190508880610169565b90601f19831691855f52815f20925f5b8181106101e257509260019796959392859289968795106101ca575b505050811b01835561017c565b01515f1960f88460031b161c191690558880806101bd565b929360206001819287860151815501950193016101a1565b845f5260205f20601f840160051c81019160208510610235575b601f0160051c01905b81811061022a5750610149565b5f815560010161021d565b9091508190610214565b634e487b7160e01b5f52602260045260245ffd5b90607f1690610137565b634e487b7160e01b5f52604160045260245ffd5b634e487b7160e01b5f52603260045260245ffd5b604051610402908161032f8239f35b82516001600160401b03811161030557820185603f82011215610305576020810151916001600160401b03831161025d576102d8601f8401601f1916602001610309565b8381526040838501018810610305575f602085819660408397018386015e83010152815201920191610081565b5f80fd5b6040519190601f01601f191682016001600160401b0381118382101761025d5760405256fe6080806040526004361015610012575f80fd5b5f3560e01c9081630121b93f146101675750806309eef43e146101275780633477ee2e146100e157638e7ea5b214610048575f80fd5b346100dd575f3660031901126100dd576001545f9060609082805b8281106100805750505061007c60405192839283610399565b0390f35b81600161008c83610268565b5001541161009d575b600101610063565b80945060019293506100af9150610268565b500154906100c56100bf84610268565b506102b4565b916001806100d286610268565b500154949050610095565b5f80fd5b346100dd5760203660031901126100dd576004356001548110156100dd5761010890610268565b506001610114826102b4565b9101549061007c60405192839283610399565b346100dd5760203660031901126100dd576004356001600160a01b038116908190036100dd575f525f602052602060ff60405f2054166040519015158152f35b346100dd5760203660031901126100dd5760043590335f525f60205260ff60405f20541661022657506001548110156101e1576101ba600191335f525f60205260405f208360ff19825416179055610268565b5001805490600182018092116101cd5755005b634e487b7160e01b5f52601160045260245ffd5b60405162461bcd60e51b815260206004820152601860248201527f496e76616c69642063616e64696461746520496e6465782e00000000000000006044820152606490fd5b62461bcd60e51b815260206004820152601760248201527f596f75206861766520616c726561647920566f7465642e0000000000000000006044820152606490fd5b6001548110156102a05760015f81815291901b7fb10e2d527612073b26eecdfd717e6a320cf44b4afac2b0732d9fcbe2b7fa0cf60191565b634e487b7160e01b5f52603260045260245ffd5b90604051915f908054908160011c9160018116801561038f575b60208410811461037b5783875290811561035d5750600114610325575b5050829003601f01601f1916820167ffffffffffffffff81118382101761031157604052565b634e487b7160e01b5f52604160045260245ffd5b9091505f5260205f205f905b8282106103475750602091508301015f806102eb565b6001816020925483858901015201910190610331565b9150506020925060ff191682850152151560051b8301015f806102eb565b634e487b7160e01b5f52602260045260245ffd5b92607f16926102ce565b9291906060602080926040875280519182918260408a0152018388015e5f828288010152601f801991011685010193015256fea2646970667358221220d2e6caaf854e93f80c5ba869f4551ffd0c1e519fd986a970c025b4279c9a778364736f6c634300081c0033",
    "sourcePath": "c:/Users/Lenovo/OneDrive/Desktop/Dev/solidity/ContolStructures/Voting.sol",
    "compiler": {
        "name": "solc",
        "version": "0.8.28+commit.7893614a"
    },
    "functionHashes": {
        "candidates(uint256)": "3477ee2e",
        "getWinner()": "8e7ea5b2",
        "hasVoted(address)": "09eef43e",
        "vote(uint256)": "0121b93f"
    },
    "gasEstimates": {
        "creation": {
            "codeDepositCost": "205200",
            "executionCost": "infinite",
            "totalCost": "infinite"
        },
        "external": {
            "candidates(uint256)": "infinite",
            "getWinner()": "infinite",
            "hasVoted(address)": "2400",
            "vote(uint256)": "55157"
        }
    }
}