{
    "contractName": "conditionals",
    "abi": [
        {
            "inputs": [
                {
                    "internalType": "uint256",
                    "name": "_value",
                    "type": "uint256"
                }
            ],
            "name": "setStoredValue",
            "outputs": [],
            "stateMutability": "nonpayable",
            "type": "function"
        },
        {
            "inputs": [],
            "name": "storedValue",
            "outputs": [
                {
                    "internalType": "uint256",
                    "name": "",
                    "type": "uint256"
                }
            ],
            "stateMutability": "view",
            "type": "function"
        }
    ],
    "bytecode": "608080604052346100155760ba908161001a8239f35b5f80fdfe60808060405260043610156011575f80fd5b5f90813560e01c80633295425d14604957636d619daa14602f575f80fd5b3460455781600319360112604557602091548152f35b5080fd5b823460815760203660031901126081576004356064811115606c57506064815580f35b600a811015607c5750600a815580f35b815580f35b80fdfea26469706673582212201175fb5cd4bace10d283e4ce65ee54758873c8df006a9486545587ac4c7739c964736f6c63430008150033",
    "sourcePath": "c:/Users/Lenovo/OneDrive/Desktop/Dev/solidity/ContolStructures/conditionals.sol",
    "compiler": {
        "name": "solc",
        "version": "0.8.21+commit.d9974bed"
    },
    "functionHashes": {
        "setStoredValue(uint256)": "3295425d",
        "storedValue()": "6d619daa"
    },
    "gasEstimates": {
        "creation": {
            "codeDepositCost": "37200",
            "executionCost": "93",
            "totalCost": "37293"
        },
        "external": {
            "setStoredValue(uint256)": "22302",
            "storedValue()": "2268"
        }
    }
}