{
    "contractName": "forLoop",
    "abi": [
        {
            "inputs": [
                {
                    "internalType": "uint256",
                    "name": "_limit",
                    "type": "uint256"
                }
            ],
            "name": "addNumbers",
            "outputs": [],
            "stateMutability": "nonpayable",
            "type": "function"
        },
        {
            "inputs": [
                {
                    "internalType": "uint256",
                    "name": "",
                    "type": "uint256"
                }
            ],
            "name": "numbers",
            "outputs": [
                {
                    "internalType": "uint256",
                    "name": "",
                    "type": "uint256"
                }
            ],
            "stateMutability": "view",
            "type": "function"
        }
    ],
    "bytecode": "6080806040523460155761012b908161001a8239f35b5f80fdfe608060405260043610156010575f80fd5b5f3560e01c80632be559981460625763d39fa23314602c575f80fd5b34605e576020366003190112605e576004355f54811015605e57604f60209160cc565b90549060031b1c604051908152f35b5f80fd5b34605e576020366003190112605e576004355f5b818110607e57005b5f54906801000000000000000082101560b857609f8260018094015f5560cc565b81549060031b9083821b915f19901b1916179055016076565b634e487b7160e01b5f52604160045260245ffd5b5f5481101560e1575f805260205f2001905f90565b634e487b7160e01b5f52603260045260245ffdfea26469706673582212202ac62d255a38b2ee32c29ed27c8ee48565680d5823787796f4ae6a4ef62ca95a64736f6c634300081c0033",
    "sourcePath": "c:/Users/Lenovo/OneDrive/Desktop/Dev/solidity/ContolStructures/Loops.sol",
    "compiler": {
        "name": "solc",
        "version": "0.8.28+commit.7893614a"
    },
    "functionHashes": {
        "addNumbers(uint256)": "2be55998",
        "numbers(uint256)": "d39fa233"
    },
    "gasEstimates": {
        "creation": {
            "codeDepositCost": "59800",
            "executionCost": "117",
            "totalCost": "59917"
        },
        "external": {
            "addNumbers(uint256)": "infinite",
            "numbers(uint256)": "6621"
        }
    }
}