{
	"marketPlace.sol": {
		"Marketplace": {
			"abi": [
				{
					"inputs": [],
					"stateMutability": "nonpayable",
					"type": "constructor"
				},
				{
					"anonymous": false,
					"inputs": [
						{
							"indexed": false,
							"internalType": "uint256",
							"name": "id",
							"type": "uint256"
						},
						{
							"indexed": false,
							"internalType": "string",
							"name": "name",
							"type": "string"
						},
						{
							"indexed": false,
							"internalType": "uint256",
							"name": "price",
							"type": "uint256"
						},
						{
							"indexed": false,
							"internalType": "address",
							"name": "seller",
							"type": "address"
						}
					],
					"name": "ItemListed",
					"type": "event"
				},
				{
					"anonymous": false,
					"inputs": [
						{
							"indexed": false,
							"internalType": "uint256",
							"name": "id",
							"type": "uint256"
						},
						{
							"indexed": false,
							"internalType": "address",
							"name": "buyer",
							"type": "address"
						}
					],
					"name": "ItemSold",
					"type": "event"
				},
				{
					"inputs": [
						{
							"internalType": "uint256",
							"name": "_id",
							"type": "uint256"
						}
					],
					"name": "buyItem",
					"outputs": [],
					"stateMutability": "payable",
					"type": "function"
				},
				{
					"inputs": [],
					"name": "itemCount",
					"outputs": [
						{
							"internalType": "uint256",
							"name": "",
							"type": "uint256"
						}
					],
					"stateMutability": "view",
					"type": "function"
				},
				{
					"inputs": [
						{
							"internalType": "uint256",
							"name": "",
							"type": "uint256"
						}
					],
					"name": "items",
					"outputs": [
						{
							"internalType": "uint256",
							"name": "id",
							"type": "uint256"
						},
						{
							"internalType": "string",
							"name": "name",
							"type": "string"
						},
						{
							"internalType": "uint256",
							"name": "price",
							"type": "uint256"
						},
						{
							"internalType": "address payable",
							"name": "seller",
							"type": "address"
						},
						{
							"internalType": "bool",
							"name": "sold",
							"type": "bool"
						}
					],
					"stateMutability": "view",
					"type": "function"
				},
				{
					"inputs": [
						{
							"internalType": "string",
							"name": "_name",
							"type": "string"
						},
						{
							"internalType": "uint256",
							"name": "_price",
							"type": "uint256"
						}
					],
					"name": "listItem",
					"outputs": [],
					"stateMutability": "nonpayable",
					"type": "function"
				},
				{
					"inputs": [],
					"name": "owner",
					"outputs": [
						{
							"internalType": "address",
							"name": "",
							"type": "address"
						}
					],
					"stateMutability": "view",
					"type": "function"
				}
			],
			"devdoc": {
				"kind": "dev",
				"methods": {},
				"version": 1
			},
			"evm": {
				"assembly": "    /* \"marketPlace.sol\":60:1410  contract Marketplace {\r... */\n  mstore(0x40, 0x80)\n    /* \"marketPlace.sol\":572:623  constructor() {\r... */\n  callvalue\n  dup1\n  iszero\n  tag_1\n  jumpi\n  0x00\n  dup1\n  revert\ntag_1:\n  pop\n    /* \"marketPlace.sol\":605:615  msg.sender */\n  caller\n    /* \"marketPlace.sol\":597:602  owner */\n  0x00\n  dup1\n    /* \"marketPlace.sol\":597:615  owner = msg.sender */\n  0x0100\n  exp\n  dup2\n  sload\n  dup2\n  0xffffffffffffffffffffffffffffffffffffffff\n  mul\n  not\n  and\n  swap1\n  dup4\n  0xffffffffffffffffffffffffffffffffffffffff\n  and\n  mul\n  or\n  swap1\n  sstore\n  pop\n    /* \"marketPlace.sol\":60:1410  contract Marketplace {\r... */\n  dataSize(sub_0)\n  dup1\n  dataOffset(sub_0)\n  0x00\n  codecopy\n  0x00\n  return\nstop\n\nsub_0: assembly {\n        /* \"marketPlace.sol\":60:1410  contract Marketplace {\r... */\n      mstore(0x40, 0x80)\n      jumpi(tag_1, lt(calldatasize, 0x04))\n      shr(0xe0, calldataload(0x00))\n      dup1\n      0x6bfb0d01\n      eq\n      tag_2\n      jumpi\n      dup1\n      0x8511c937\n      eq\n      tag_3\n      jumpi\n      dup1\n      0x8da5cb5b\n      eq\n      tag_4\n      jumpi\n      dup1\n      0xbfb231d2\n      eq\n      tag_5\n      jumpi\n      dup1\n      0xe7fb74c7\n      eq\n      tag_6\n      jumpi\n    tag_1:\n      0x00\n      dup1\n      revert\n        /* \"marketPlace.sol\":139:160  uint public itemCount */\n    tag_2:\n      callvalue\n      dup1\n      iszero\n      tag_7\n      jumpi\n      0x00\n      dup1\n      revert\n    tag_7:\n      pop\n      tag_8\n      tag_9\n      jump\t// in\n    tag_8:\n      mload(0x40)\n      tag_10\n      swap2\n      swap1\n      tag_11\n      jump\t// in\n    tag_10:\n      mload(0x40)\n      dup1\n      swap2\n      sub\n      swap1\n      return\n        /* \"marketPlace.sol\":673:979  function listItem(string memory _name, uint _price) public {\r... */\n    tag_3:\n      callvalue\n      dup1\n      iszero\n      tag_12\n      jumpi\n      0x00\n      dup1\n      revert\n    tag_12:\n      pop\n      tag_13\n      0x04\n      dup1\n      calldatasize\n      sub\n      dup2\n      add\n      swap1\n      tag_14\n      swap2\n      swap1\n      tag_15\n      jump\t// in\n    tag_14:\n      tag_16\n      jump\t// in\n    tag_13:\n      stop\n        /* \"marketPlace.sol\":112:132  address public owner */\n    tag_4:\n      callvalue\n      dup1\n      iszero\n      tag_17\n      jumpi\n      0x00\n      dup1\n      revert\n    tag_17:\n      pop\n      tag_18\n      tag_19\n      jump\t// in\n    tag_18:\n      mload(0x40)\n      tag_20\n      swap2\n      swap1\n      tag_21\n      jump\t// in\n    tag_20:\n      mload(0x40)\n      dup1\n      swap2\n      sub\n      swap1\n      return\n        /* \"marketPlace.sol\":167:201  mapping(uint => Item) public items */\n    tag_5:\n      callvalue\n      dup1\n      iszero\n      tag_22\n      jumpi\n      0x00\n      dup1\n      revert\n    tag_22:\n      pop\n      tag_23\n      0x04\n      dup1\n      calldatasize\n      sub\n      dup2\n      add\n      swap1\n      tag_24\n      swap2\n      swap1\n      tag_25\n      jump\t// in\n    tag_24:\n      tag_26\n      jump\t// in\n    tag_23:\n      mload(0x40)\n      tag_27\n      swap6\n      swap5\n      swap4\n      swap3\n      swap2\n      swap1\n      tag_28\n      jump\t// in\n    tag_27:\n      mload(0x40)\n      dup1\n      swap2\n      sub\n      swap1\n      return\n        /* \"marketPlace.sol\":1019:1407  function buyItem(uint _id) public payable {\r... */\n    tag_6:\n      tag_29\n      0x04\n      dup1\n      calldatasize\n      sub\n      dup2\n      add\n      swap1\n      tag_30\n      swap2\n      swap1\n      tag_25\n      jump\t// in\n    tag_30:\n      tag_31\n      jump\t// in\n    tag_29:\n      stop\n        /* \"marketPlace.sol\":139:160  uint public itemCount */\n    tag_9:\n      sload(0x01)\n      dup2\n      jump\t// out\n        /* \"marketPlace.sol\":673:979  function listItem(string memory _name, uint _price) public {\r... */\n    tag_16:\n        /* \"marketPlace.sol\":760:761  0 */\n      0x00\n        /* \"marketPlace.sol\":751:757  _price */\n      dup2\n        /* \"marketPlace.sol\":751:761  _price > 0 */\n      gt\n        /* \"marketPlace.sol\":743:797  require(_price > 0, \"Price must be greater than zero\") */\n      tag_33\n      jumpi\n      mload(0x40)\n      0x08c379a000000000000000000000000000000000000000000000000000000000\n      dup2\n      mstore\n      0x04\n      add\n      tag_34\n      swap1\n      tag_35\n      jump\t// in\n    tag_34:\n      mload(0x40)\n      dup1\n      swap2\n      sub\n      swap1\n      revert\n    tag_33:\n        /* \"marketPlace.sol\":808:817  itemCount */\n      0x01\n      0x00\n        /* \"marketPlace.sol\":808:819  itemCount++ */\n      dup2\n      sload\n      dup1\n      swap3\n      swap2\n      swap1\n      tag_36\n      swap1\n      tag_37\n      jump\t// in\n    tag_36:\n      swap2\n      swap1\n      pop\n      sstore\n      pop\n        /* \"marketPlace.sol\":849:907  Item(itemCount, _name, _price, payable(msg.sender), false) */\n      mload(0x40)\n      dup1\n      0xa0\n      add\n      0x40\n      mstore\n      dup1\n        /* \"marketPlace.sol\":854:863  itemCount */\n      sload(0x01)\n        /* \"marketPlace.sol\":849:907  Item(itemCount, _name, _price, payable(msg.sender), false) */\n      dup2\n      mstore\n      0x20\n      add\n        /* \"marketPlace.sol\":865:870  _name */\n      dup4\n        /* \"marketPlace.sol\":849:907  Item(itemCount, _name, _price, payable(msg.sender), false) */\n      dup2\n      mstore\n      0x20\n      add\n        /* \"marketPlace.sol\":872:878  _price */\n      dup3\n        /* \"marketPlace.sol\":849:907  Item(itemCount, _name, _price, payable(msg.sender), false) */\n      dup2\n      mstore\n      0x20\n      add\n        /* \"marketPlace.sol\":888:898  msg.sender */\n      caller\n        /* \"marketPlace.sol\":849:907  Item(itemCount, _name, _price, payable(msg.sender), false) */\n      0xffffffffffffffffffffffffffffffffffffffff\n      and\n      dup2\n      mstore\n      0x20\n      add\n        /* \"marketPlace.sol\":901:906  false */\n      0x00\n        /* \"marketPlace.sol\":849:907  Item(itemCount, _name, _price, payable(msg.sender), false) */\n      iszero\n      iszero\n      dup2\n      mstore\n      pop\n        /* \"marketPlace.sol\":830:835  items */\n      0x02\n        /* \"marketPlace.sol\":830:846  items[itemCount] */\n      0x00\n        /* \"marketPlace.sol\":836:845  itemCount */\n      sload(0x01)\n        /* \"marketPlace.sol\":830:846  items[itemCount] */\n      dup2\n      mstore\n      0x20\n      add\n      swap1\n      dup2\n      mstore\n      0x20\n      add\n      0x00\n      keccak256\n        /* \"marketPlace.sol\":830:907  items[itemCount] = Item(itemCount, _name, _price, payable(msg.sender), false) */\n      0x00\n      dup3\n      add\n      mload\n      dup2\n      0x00\n      add\n      sstore\n      0x20\n      dup3\n      add\n      mload\n      dup2\n      0x01\n      add\n      swap1\n      dup1\n      mload\n      swap1\n      0x20\n      add\n      swap1\n      tag_38\n      swap3\n      swap2\n      swap1\n      tag_39\n      jump\t// in\n    tag_38:\n      pop\n      0x40\n      dup3\n      add\n      mload\n      dup2\n      0x02\n      add\n      sstore\n      0x60\n      dup3\n      add\n      mload\n      dup2\n      0x03\n      add\n      exp(0x0100, 0x00)\n      dup2\n      sload\n      dup2\n      0xffffffffffffffffffffffffffffffffffffffff\n      mul\n      not\n      and\n      swap1\n      dup4\n      0xffffffffffffffffffffffffffffffffffffffff\n      and\n      mul\n      or\n      swap1\n      sstore\n      pop\n      0x80\n      dup3\n      add\n      mload\n      dup2\n      0x03\n      add\n      exp(0x0100, 0x14)\n      dup2\n      sload\n      dup2\n      0xff\n      mul\n      not\n      and\n      swap1\n      dup4\n      iszero\n      iszero\n      mul\n      or\n      swap1\n      sstore\n      pop\n      swap1\n      pop\n      pop\n        /* \"marketPlace.sol\":923:971  ItemListed(itemCount, _name, _price, msg.sender) */\n      0x16244e47af8a7d2c923faa2cab44315c0514c7aa830682bbb9cc8f0d37ad7548\n        /* \"marketPlace.sol\":934:943  itemCount */\n      sload(0x01)\n        /* \"marketPlace.sol\":945:950  _name */\n      dup4\n        /* \"marketPlace.sol\":952:958  _price */\n      dup4\n        /* \"marketPlace.sol\":960:970  msg.sender */\n      caller\n        /* \"marketPlace.sol\":923:971  ItemListed(itemCount, _name, _price, msg.sender) */\n      mload(0x40)\n      tag_40\n      swap5\n      swap4\n      swap3\n      swap2\n      swap1\n      tag_41\n      jump\t// in\n    tag_40:\n      mload(0x40)\n      dup1\n      swap2\n      sub\n      swap1\n      log1\n        /* \"marketPlace.sol\":673:979  function listItem(string memory _name, uint _price) public {\r... */\n      pop\n      pop\n      jump\t// out\n        /* \"marketPlace.sol\":112:132  address public owner */\n    tag_19:\n      0x00\n      dup1\n      sload\n      swap1\n      0x0100\n      exp\n      swap1\n      div\n      0xffffffffffffffffffffffffffffffffffffffff\n      and\n      dup2\n      jump\t// out\n        /* \"marketPlace.sol\":167:201  mapping(uint => Item) public items */\n    tag_26:\n      mstore(0x20, 0x02)\n      dup1\n      0x00\n      mstore\n      keccak256(0x00, 0x40)\n      0x00\n      swap2\n      pop\n      swap1\n      pop\n      dup1\n      0x00\n      add\n      sload\n      swap1\n      dup1\n      0x01\n      add\n      dup1\n      sload\n      tag_42\n      swap1\n      tag_43\n      jump\t// in\n    tag_42:\n      dup1\n      0x1f\n      add\n      0x20\n      dup1\n      swap2\n      div\n      mul\n      0x20\n      add\n      mload(0x40)\n      swap1\n      dup2\n      add\n      0x40\n      mstore\n      dup1\n      swap3\n      swap2\n      swap1\n      dup2\n      dup2\n      mstore\n      0x20\n      add\n      dup3\n      dup1\n      sload\n      tag_44\n      swap1\n      tag_43\n      jump\t// in\n    tag_44:\n      dup1\n      iszero\n      tag_45\n      jumpi\n      dup1\n      0x1f\n      lt\n      tag_46\n      jumpi\n      0x0100\n      dup1\n      dup4\n      sload\n      div\n      mul\n      dup4\n      mstore\n      swap2\n      0x20\n      add\n      swap2\n      jump(tag_45)\n    tag_46:\n      dup3\n      add\n      swap2\n      swap1\n      0x00\n      mstore\n      keccak256(0x00, 0x20)\n      swap1\n    tag_47:\n      dup2\n      sload\n      dup2\n      mstore\n      swap1\n      0x01\n      add\n      swap1\n      0x20\n      add\n      dup1\n      dup4\n      gt\n      tag_47\n      jumpi\n      dup3\n      swap1\n      sub\n      0x1f\n      and\n      dup3\n      add\n      swap2\n    tag_45:\n      pop\n      pop\n      pop\n      pop\n      pop\n      swap1\n      dup1\n      0x02\n      add\n      sload\n      swap1\n      dup1\n      0x03\n      add\n      0x00\n      swap1\n      sload\n      swap1\n      0x0100\n      exp\n      swap1\n      div\n      0xffffffffffffffffffffffffffffffffffffffff\n      and\n      swap1\n      dup1\n      0x03\n      add\n      0x14\n      swap1\n      sload\n      swap1\n      0x0100\n      exp\n      swap1\n      div\n      0xff\n      and\n      swap1\n      pop\n      dup6\n      jump\t// out\n        /* \"marketPlace.sol\":1019:1407  function buyItem(uint _id) public payable {\r... */\n    tag_31:\n        /* \"marketPlace.sol\":1072:1089  Item storage item */\n      0x00\n        /* \"marketPlace.sol\":1092:1097  items */\n      0x02\n        /* \"marketPlace.sol\":1092:1102  items[_id] */\n      0x00\n        /* \"marketPlace.sol\":1098:1101  _id */\n      dup4\n        /* \"marketPlace.sol\":1092:1102  items[_id] */\n      dup2\n      mstore\n      0x20\n      add\n      swap1\n      dup2\n      mstore\n      0x20\n      add\n      0x00\n      keccak256\n        /* \"marketPlace.sol\":1072:1102  Item storage item = items[_id] */\n      swap1\n      pop\n        /* \"marketPlace.sol\":1127:1128  0 */\n      0x00\n        /* \"marketPlace.sol\":1121:1124  _id */\n      dup3\n        /* \"marketPlace.sol\":1121:1128  _id > 0 */\n      gt\n        /* \"marketPlace.sol\":1121:1148  _id > 0 && _id <= itemCount */\n      dup1\n      iszero\n      tag_49\n      jumpi\n      pop\n        /* \"marketPlace.sol\":1139:1148  itemCount */\n      sload(0x01)\n        /* \"marketPlace.sol\":1132:1135  _id */\n      dup3\n        /* \"marketPlace.sol\":1132:1148  _id <= itemCount */\n      gt\n      iszero\n        /* \"marketPlace.sol\":1121:1148  _id > 0 && _id <= itemCount */\n    tag_49:\n        /* \"marketPlace.sol\":1113:1172  require(_id > 0 && _id <= itemCount, \"Item does not exist\") */\n      tag_50\n      jumpi\n      mload(0x40)\n      0x08c379a000000000000000000000000000000000000000000000000000000000\n      dup2\n      mstore\n      0x04\n      add\n      tag_51\n      swap1\n      tag_52\n      jump\t// in\n    tag_51:\n      mload(0x40)\n      dup1\n      swap2\n      sub\n      swap1\n      revert\n    tag_50:\n        /* \"marketPlace.sol\":1192:1196  item */\n      dup1\n        /* \"marketPlace.sol\":1192:1201  item.sold */\n      0x03\n      add\n      0x14\n      swap1\n      sload\n      swap1\n      0x0100\n      exp\n      swap1\n      div\n      0xff\n      and\n        /* \"marketPlace.sol\":1191:1201  !item.sold */\n      iszero\n        /* \"marketPlace.sol\":1183:1223  require(!item.sold, \"Item already sold\") */\n      tag_53\n      jumpi\n      mload(0x40)\n      0x08c379a000000000000000000000000000000000000000000000000000000000\n      dup2\n      mstore\n      0x04\n      add\n      tag_54\n      swap1\n      tag_55\n      jump\t// in\n    tag_54:\n      mload(0x40)\n      dup1\n      swap2\n      sub\n      swap1\n      revert\n    tag_53:\n        /* \"marketPlace.sol\":1255:1259  item */\n      dup1\n        /* \"marketPlace.sol\":1255:1265  item.price */\n      0x02\n      add\n      sload\n        /* \"marketPlace.sol\":1242:1251  msg.value */\n      callvalue\n        /* \"marketPlace.sol\":1242:1265  msg.value >= item.price */\n      lt\n      iszero\n        /* \"marketPlace.sol\":1234:1286  require(msg.value >= item.price, \"Not enough Ether\") */\n      tag_56\n      jumpi\n      mload(0x40)\n      0x08c379a000000000000000000000000000000000000000000000000000000000\n      dup2\n      mstore\n      0x04\n      add\n      tag_57\n      swap1\n      tag_58\n      jump\t// in\n    tag_57:\n      mload(0x40)\n      dup1\n      swap2\n      sub\n      swap1\n      revert\n    tag_56:\n        /* \"marketPlace.sol\":1299:1303  item */\n      dup1\n        /* \"marketPlace.sol\":1299:1310  item.seller */\n      0x03\n      add\n      0x00\n      swap1\n      sload\n      swap1\n      0x0100\n      exp\n      swap1\n      div\n      0xffffffffffffffffffffffffffffffffffffffff\n      and\n        /* \"marketPlace.sol\":1299:1319  item.seller.transfer */\n      0xffffffffffffffffffffffffffffffffffffffff\n      and\n        /* \"marketPlace.sol\":1299:1331  item.seller.transfer(item.price) */\n      0x08fc\n        /* \"marketPlace.sol\":1320:1324  item */\n      dup3\n        /* \"marketPlace.sol\":1320:1330  item.price */\n      0x02\n      add\n      sload\n        /* \"marketPlace.sol\":1299:1331  item.seller.transfer(item.price) */\n      swap1\n      dup2\n      iszero\n      mul\n      swap1\n      mload(0x40)\n      0x00\n      mload(0x40)\n      dup1\n      dup4\n      sub\n      dup2\n      dup6\n      dup9\n      dup9\n      call\n      swap4\n      pop\n      pop\n      pop\n      pop\n      iszero\n      dup1\n      iszero\n      tag_60\n      jumpi\n      returndatasize\n      0x00\n      dup1\n      returndatacopy\n      revert(0x00, returndatasize)\n    tag_60:\n      pop\n        /* \"marketPlace.sol\":1354:1358  true */\n      0x01\n        /* \"marketPlace.sol\":1342:1346  item */\n      dup2\n        /* \"marketPlace.sol\":1342:1351  item.sold */\n      0x03\n      add\n      0x14\n        /* \"marketPlace.sol\":1342:1358  item.sold = true */\n      0x0100\n      exp\n      dup2\n      sload\n      dup2\n      0xff\n      mul\n      not\n      and\n      swap1\n      dup4\n      iszero\n      iszero\n      mul\n      or\n      swap1\n      sstore\n      pop\n        /* \"marketPlace.sol\":1374:1399  ItemSold(_id, msg.sender) */\n      0x7de4035ced290be6d7724645d43bad448b5d8cc76743ff4da172c2d8e1caa0f5\n        /* \"marketPlace.sol\":1383:1386  _id */\n      dup3\n        /* \"marketPlace.sol\":1388:1398  msg.sender */\n      caller\n        /* \"marketPlace.sol\":1374:1399  ItemSold(_id, msg.sender) */\n      mload(0x40)\n      tag_61\n      swap3\n      swap2\n      swap1\n      tag_62\n      jump\t// in\n    tag_61:\n      mload(0x40)\n      dup1\n      swap2\n      sub\n      swap1\n      log1\n        /* \"marketPlace.sol\":1061:1407  {\r... */\n      pop\n        /* \"marketPlace.sol\":1019:1407  function buyItem(uint _id) public payable {\r... */\n      pop\n      jump\t// out\n    tag_39:\n      dup3\n      dup1\n      sload\n      tag_63\n      swap1\n      tag_43\n      jump\t// in\n    tag_63:\n      swap1\n      0x00\n      mstore\n      keccak256(0x00, 0x20)\n      swap1\n      0x1f\n      add\n      0x20\n      swap1\n      div\n      dup2\n      add\n      swap3\n      dup3\n      tag_65\n      jumpi\n      0x00\n      dup6\n      sstore\n      jump(tag_64)\n    tag_65:\n      dup3\n      0x1f\n      lt\n      tag_66\n      jumpi\n      dup1\n      mload\n      not(0xff)\n      and\n      dup4\n      dup1\n      add\n      or\n      dup6\n      sstore\n      jump(tag_64)\n    tag_66:\n      dup3\n      dup1\n      add\n      0x01\n      add\n      dup6\n      sstore\n      dup3\n      iszero\n      tag_64\n      jumpi\n      swap2\n      dup3\n      add\n    tag_67:\n      dup3\n      dup2\n      gt\n      iszero\n      tag_68\n      jumpi\n      dup3\n      mload\n      dup3\n      sstore\n      swap2\n      0x20\n      add\n      swap2\n      swap1\n      0x01\n      add\n      swap1\n      jump(tag_67)\n    tag_68:\n    tag_64:\n      pop\n      swap1\n      pop\n      tag_69\n      swap2\n      swap1\n      tag_70\n      jump\t// in\n    tag_69:\n      pop\n      swap1\n      jump\t// out\n    tag_70:\n    tag_71:\n      dup1\n      dup3\n      gt\n      iszero\n      tag_72\n      jumpi\n      0x00\n      dup2\n      0x00\n      swap1\n      sstore\n      pop\n      0x01\n      add\n      jump(tag_71)\n    tag_72:\n      pop\n      swap1\n      jump\t// out\n        /* \"#utility.yul\":7:419   */\n    tag_74:\n        /* \"#utility.yul\":85:90   */\n      0x00\n        /* \"#utility.yul\":110:176   */\n      tag_76\n        /* \"#utility.yul\":126:175   */\n      tag_77\n        /* \"#utility.yul\":168:174   */\n      dup5\n        /* \"#utility.yul\":126:175   */\n      tag_78\n      jump\t// in\n    tag_77:\n        /* \"#utility.yul\":110:176   */\n      tag_79\n      jump\t// in\n    tag_76:\n        /* \"#utility.yul\":101:176   */\n      swap1\n      pop\n        /* \"#utility.yul\":199:205   */\n      dup3\n        /* \"#utility.yul\":192:197   */\n      dup2\n        /* \"#utility.yul\":185:206   */\n      mstore\n        /* \"#utility.yul\":237:241   */\n      0x20\n        /* \"#utility.yul\":230:235   */\n      dup2\n        /* \"#utility.yul\":226:242   */\n      add\n        /* \"#utility.yul\":275:278   */\n      dup5\n        /* \"#utility.yul\":266:272   */\n      dup5\n        /* \"#utility.yul\":261:264   */\n      dup5\n        /* \"#utility.yul\":257:273   */\n      add\n        /* \"#utility.yul\":254:279   */\n      gt\n        /* \"#utility.yul\":251:363   */\n      iszero\n      tag_80\n      jumpi\n        /* \"#utility.yul\":282:361   */\n      tag_81\n      tag_82\n      jump\t// in\n    tag_81:\n        /* \"#utility.yul\":251:363   */\n    tag_80:\n        /* \"#utility.yul\":372:413   */\n      tag_83\n        /* \"#utility.yul\":406:412   */\n      dup5\n        /* \"#utility.yul\":401:404   */\n      dup3\n        /* \"#utility.yul\":396:399   */\n      dup6\n        /* \"#utility.yul\":372:413   */\n      tag_84\n      jump\t// in\n    tag_83:\n        /* \"#utility.yul\":91:419   */\n      pop\n        /* \"#utility.yul\":7:419   */\n      swap4\n      swap3\n      pop\n      pop\n      pop\n      jump\t// out\n        /* \"#utility.yul\":439:779   */\n    tag_85:\n        /* \"#utility.yul\":495:500   */\n      0x00\n        /* \"#utility.yul\":544:547   */\n      dup3\n        /* \"#utility.yul\":537:541   */\n      0x1f\n        /* \"#utility.yul\":529:535   */\n      dup4\n        /* \"#utility.yul\":525:542   */\n      add\n        /* \"#utility.yul\":521:548   */\n      slt\n        /* \"#utility.yul\":511:633   */\n      tag_87\n      jumpi\n        /* \"#utility.yul\":552:631   */\n      tag_88\n      tag_89\n      jump\t// in\n    tag_88:\n        /* \"#utility.yul\":511:633   */\n    tag_87:\n        /* \"#utility.yul\":669:675   */\n      dup2\n        /* \"#utility.yul\":656:676   */\n      calldataload\n        /* \"#utility.yul\":694:773   */\n      tag_90\n        /* \"#utility.yul\":769:772   */\n      dup5\n        /* \"#utility.yul\":761:767   */\n      dup3\n        /* \"#utility.yul\":754:758   */\n      0x20\n        /* \"#utility.yul\":746:752   */\n      dup7\n        /* \"#utility.yul\":742:759   */\n      add\n        /* \"#utility.yul\":694:773   */\n      tag_74\n      jump\t// in\n    tag_90:\n        /* \"#utility.yul\":685:773   */\n      swap2\n      pop\n        /* \"#utility.yul\":501:779   */\n      pop\n        /* \"#utility.yul\":439:779   */\n      swap3\n      swap2\n      pop\n      pop\n      jump\t// out\n        /* \"#utility.yul\":785:924   */\n    tag_91:\n        /* \"#utility.yul\":831:836   */\n      0x00\n        /* \"#utility.yul\":869:875   */\n      dup2\n        /* \"#utility.yul\":856:876   */\n      calldataload\n        /* \"#utility.yul\":847:876   */\n      swap1\n      pop\n        /* \"#utility.yul\":885:918   */\n      tag_93\n        /* \"#utility.yul\":912:917   */\n      dup2\n        /* \"#utility.yul\":885:918   */\n      tag_94\n      jump\t// in\n    tag_93:\n        /* \"#utility.yul\":785:924   */\n      swap3\n      swap2\n      pop\n      pop\n      jump\t// out\n        /* \"#utility.yul\":930:1584   */\n    tag_15:\n        /* \"#utility.yul\":1008:1014   */\n      0x00\n        /* \"#utility.yul\":1016:1022   */\n      dup1\n        /* \"#utility.yul\":1065:1067   */\n      0x40\n        /* \"#utility.yul\":1053:1062   */\n      dup4\n        /* \"#utility.yul\":1044:1051   */\n      dup6\n        /* \"#utility.yul\":1040:1063   */\n      sub\n        /* \"#utility.yul\":1036:1068   */\n      slt\n        /* \"#utility.yul\":1033:1152   */\n      iszero\n      tag_96\n      jumpi\n        /* \"#utility.yul\":1071:1150   */\n      tag_97\n      tag_98\n      jump\t// in\n    tag_97:\n        /* \"#utility.yul\":1033:1152   */\n    tag_96:\n        /* \"#utility.yul\":1219:1220   */\n      0x00\n        /* \"#utility.yul\":1208:1217   */\n      dup4\n        /* \"#utility.yul\":1204:1221   */\n      add\n        /* \"#utility.yul\":1191:1222   */\n      calldataload\n        /* \"#utility.yul\":1249:1267   */\n      0xffffffffffffffff\n        /* \"#utility.yul\":1241:1247   */\n      dup2\n        /* \"#utility.yul\":1238:1268   */\n      gt\n        /* \"#utility.yul\":1235:1352   */\n      iszero\n      tag_99\n      jumpi\n        /* \"#utility.yul\":1271:1350   */\n      tag_100\n      tag_101\n      jump\t// in\n    tag_100:\n        /* \"#utility.yul\":1235:1352   */\n    tag_99:\n        /* \"#utility.yul\":1376:1439   */\n      tag_102\n        /* \"#utility.yul\":1431:1438   */\n      dup6\n        /* \"#utility.yul\":1422:1428   */\n      dup3\n        /* \"#utility.yul\":1411:1420   */\n      dup7\n        /* \"#utility.yul\":1407:1429   */\n      add\n        /* \"#utility.yul\":1376:1439   */\n      tag_85\n      jump\t// in\n    tag_102:\n        /* \"#utility.yul\":1366:1439   */\n      swap3\n      pop\n        /* \"#utility.yul\":1162:1449   */\n      pop\n        /* \"#utility.yul\":1488:1490   */\n      0x20\n        /* \"#utility.yul\":1514:1567   */\n      tag_103\n        /* \"#utility.yul\":1559:1566   */\n      dup6\n        /* \"#utility.yul\":1550:1556   */\n      dup3\n        /* \"#utility.yul\":1539:1548   */\n      dup7\n        /* \"#utility.yul\":1535:1557   */\n      add\n        /* \"#utility.yul\":1514:1567   */\n      tag_91\n      jump\t// in\n    tag_103:\n        /* \"#utility.yul\":1504:1567   */\n      swap2\n      pop\n        /* \"#utility.yul\":1459:1577   */\n      pop\n        /* \"#utility.yul\":930:1584   */\n      swap3\n      pop\n      swap3\n      swap1\n      pop\n      jump\t// out\n        /* \"#utility.yul\":1590:1919   */\n    tag_25:\n        /* \"#utility.yul\":1649:1655   */\n      0x00\n        /* \"#utility.yul\":1698:1700   */\n      0x20\n        /* \"#utility.yul\":1686:1695   */\n      dup3\n        /* \"#utility.yul\":1677:1684   */\n      dup5\n        /* \"#utility.yul\":1673:1696   */\n      sub\n        /* \"#utility.yul\":1669:1701   */\n      slt\n        /* \"#utility.yul\":1666:1785   */\n      iszero\n      tag_105\n      jumpi\n        /* \"#utility.yul\":1704:1783   */\n      tag_106\n      tag_98\n      jump\t// in\n    tag_106:\n        /* \"#utility.yul\":1666:1785   */\n    tag_105:\n        /* \"#utility.yul\":1824:1825   */\n      0x00\n        /* \"#utility.yul\":1849:1902   */\n      tag_107\n        /* \"#utility.yul\":1894:1901   */\n      dup5\n        /* \"#utility.yul\":1885:1891   */\n      dup3\n        /* \"#utility.yul\":1874:1883   */\n      dup6\n        /* \"#utility.yul\":1870:1892   */\n      add\n        /* \"#utility.yul\":1849:1902   */\n      tag_91\n      jump\t// in\n    tag_107:\n        /* \"#utility.yul\":1839:1902   */\n      swap2\n      pop\n        /* \"#utility.yul\":1795:1912   */\n      pop\n        /* \"#utility.yul\":1590:1919   */\n      swap3\n      swap2\n      pop\n      pop\n      jump\t// out\n        /* \"#utility.yul\":1925:2067   */\n    tag_108:\n        /* \"#utility.yul\":2028:2060   */\n      tag_110\n        /* \"#utility.yul\":2054:2059   */\n      dup2\n        /* \"#utility.yul\":2028:2060   */\n      tag_111\n      jump\t// in\n    tag_110:\n        /* \"#utility.yul\":2023:2026   */\n      dup3\n        /* \"#utility.yul\":2016:2061   */\n      mstore\n        /* \"#utility.yul\":1925:2067   */\n      pop\n      pop\n      jump\t// out\n        /* \"#utility.yul\":2073:2191   */\n    tag_112:\n        /* \"#utility.yul\":2160:2184   */\n      tag_114\n        /* \"#utility.yul\":2178:2183   */\n      dup2\n        /* \"#utility.yul\":2160:2184   */\n      tag_115\n      jump\t// in\n    tag_114:\n        /* \"#utility.yul\":2155:2158   */\n      dup3\n        /* \"#utility.yul\":2148:2185   */\n      mstore\n        /* \"#utility.yul\":2073:2191   */\n      pop\n      pop\n      jump\t// out\n        /* \"#utility.yul\":2197:2306   */\n    tag_116:\n        /* \"#utility.yul\":2278:2299   */\n      tag_118\n        /* \"#utility.yul\":2293:2298   */\n      dup2\n        /* \"#utility.yul\":2278:2299   */\n      tag_119\n      jump\t// in\n    tag_118:\n        /* \"#utility.yul\":2273:2276   */\n      dup3\n        /* \"#utility.yul\":2266:2300   */\n      mstore\n        /* \"#utility.yul\":2197:2306   */\n      pop\n      pop\n      jump\t// out\n        /* \"#utility.yul\":2312:2676   */\n    tag_120:\n        /* \"#utility.yul\":2400:2403   */\n      0x00\n        /* \"#utility.yul\":2428:2467   */\n      tag_122\n        /* \"#utility.yul\":2461:2466   */\n      dup3\n        /* \"#utility.yul\":2428:2467   */\n      tag_123\n      jump\t// in\n    tag_122:\n        /* \"#utility.yul\":2483:2554   */\n      tag_124\n        /* \"#utility.yul\":2547:2553   */\n      dup2\n        /* \"#utility.yul\":2542:2545   */\n      dup6\n        /* \"#utility.yul\":2483:2554   */\n      tag_125\n      jump\t// in\n    tag_124:\n        /* \"#utility.yul\":2476:2554   */\n      swap4\n      pop\n        /* \"#utility.yul\":2563:2615   */\n      tag_126\n        /* \"#utility.yul\":2608:2614   */\n      dup2\n        /* \"#utility.yul\":2603:2606   */\n      dup6\n        /* \"#utility.yul\":2596:2600   */\n      0x20\n        /* \"#utility.yul\":2589:2594   */\n      dup7\n        /* \"#utility.yul\":2585:2601   */\n      add\n        /* \"#utility.yul\":2563:2615   */\n      tag_127\n      jump\t// in\n    tag_126:\n        /* \"#utility.yul\":2640:2669   */\n      tag_128\n        /* \"#utility.yul\":2662:2668   */\n      dup2\n        /* \"#utility.yul\":2640:2669   */\n      tag_129\n      jump\t// in\n    tag_128:\n        /* \"#utility.yul\":2635:2638   */\n      dup5\n        /* \"#utility.yul\":2631:2670   */\n      add\n        /* \"#utility.yul\":2624:2670   */\n      swap2\n      pop\n        /* \"#utility.yul\":2404:2676   */\n      pop\n        /* \"#utility.yul\":2312:2676   */\n      swap3\n      swap2\n      pop\n      pop\n      jump\t// out\n        /* \"#utility.yul\":2682:3048   */\n    tag_130:\n        /* \"#utility.yul\":2824:2827   */\n      0x00\n        /* \"#utility.yul\":2845:2912   */\n      tag_132\n        /* \"#utility.yul\":2909:2911   */\n      0x1f\n        /* \"#utility.yul\":2904:2907   */\n      dup4\n        /* \"#utility.yul\":2845:2912   */\n      tag_125\n      jump\t// in\n    tag_132:\n        /* \"#utility.yul\":2838:2912   */\n      swap2\n      pop\n        /* \"#utility.yul\":2921:3014   */\n      tag_133\n        /* \"#utility.yul\":3010:3013   */\n      dup3\n        /* \"#utility.yul\":2921:3014   */\n      tag_134\n      jump\t// in\n    tag_133:\n        /* \"#utility.yul\":3039:3041   */\n      0x20\n        /* \"#utility.yul\":3034:3037   */\n      dup3\n        /* \"#utility.yul\":3030:3042   */\n      add\n        /* \"#utility.yul\":3023:3042   */\n      swap1\n      pop\n        /* \"#utility.yul\":2682:3048   */\n      swap2\n      swap1\n      pop\n      jump\t// out\n        /* \"#utility.yul\":3054:3420   */\n    tag_135:\n        /* \"#utility.yul\":3196:3199   */\n      0x00\n        /* \"#utility.yul\":3217:3284   */\n      tag_137\n        /* \"#utility.yul\":3281:3283   */\n      0x10\n        /* \"#utility.yul\":3276:3279   */\n      dup4\n        /* \"#utility.yul\":3217:3284   */\n      tag_125\n      jump\t// in\n    tag_137:\n        /* \"#utility.yul\":3210:3284   */\n      swap2\n      pop\n        /* \"#utility.yul\":3293:3386   */\n      tag_138\n        /* \"#utility.yul\":3382:3385   */\n      dup3\n        /* \"#utility.yul\":3293:3386   */\n      tag_139\n      jump\t// in\n    tag_138:\n        /* \"#utility.yul\":3411:3413   */\n      0x20\n        /* \"#utility.yul\":3406:3409   */\n      dup3\n        /* \"#utility.yul\":3402:3414   */\n      add\n        /* \"#utility.yul\":3395:3414   */\n      swap1\n      pop\n        /* \"#utility.yul\":3054:3420   */\n      swap2\n      swap1\n      pop\n      jump\t// out\n        /* \"#utility.yul\":3426:3792   */\n    tag_140:\n        /* \"#utility.yul\":3568:3571   */\n      0x00\n        /* \"#utility.yul\":3589:3656   */\n      tag_142\n        /* \"#utility.yul\":3653:3655   */\n      0x13\n        /* \"#utility.yul\":3648:3651   */\n      dup4\n        /* \"#utility.yul\":3589:3656   */\n      tag_125\n      jump\t// in\n    tag_142:\n        /* \"#utility.yul\":3582:3656   */\n      swap2\n      pop\n        /* \"#utility.yul\":3665:3758   */\n      tag_143\n        /* \"#utility.yul\":3754:3757   */\n      dup3\n        /* \"#utility.yul\":3665:3758   */\n      tag_144\n      jump\t// in\n    tag_143:\n        /* \"#utility.yul\":3783:3785   */\n      0x20\n        /* \"#utility.yul\":3778:3781   */\n      dup3\n        /* \"#utility.yul\":3774:3786   */\n      add\n        /* \"#utility.yul\":3767:3786   */\n      swap1\n      pop\n        /* \"#utility.yul\":3426:3792   */\n      swap2\n      swap1\n      pop\n      jump\t// out\n        /* \"#utility.yul\":3798:4164   */\n    tag_145:\n        /* \"#utility.yul\":3940:3943   */\n      0x00\n        /* \"#utility.yul\":3961:4028   */\n      tag_147\n        /* \"#utility.yul\":4025:4027   */\n      0x11\n        /* \"#utility.yul\":4020:4023   */\n      dup4\n        /* \"#utility.yul\":3961:4028   */\n      tag_125\n      jump\t// in\n    tag_147:\n        /* \"#utility.yul\":3954:4028   */\n      swap2\n      pop\n        /* \"#utility.yul\":4037:4130   */\n      tag_148\n        /* \"#utility.yul\":4126:4129   */\n      dup3\n        /* \"#utility.yul\":4037:4130   */\n      tag_149\n      jump\t// in\n    tag_148:\n        /* \"#utility.yul\":4155:4157   */\n      0x20\n        /* \"#utility.yul\":4150:4153   */\n      dup3\n        /* \"#utility.yul\":4146:4158   */\n      add\n        /* \"#utility.yul\":4139:4158   */\n      swap1\n      pop\n        /* \"#utility.yul\":3798:4164   */\n      swap2\n      swap1\n      pop\n      jump\t// out\n        /* \"#utility.yul\":4170:4288   */\n    tag_150:\n        /* \"#utility.yul\":4257:4281   */\n      tag_152\n        /* \"#utility.yul\":4275:4280   */\n      dup2\n        /* \"#utility.yul\":4257:4281   */\n      tag_153\n      jump\t// in\n    tag_152:\n        /* \"#utility.yul\":4252:4255   */\n      dup3\n        /* \"#utility.yul\":4245:4282   */\n      mstore\n        /* \"#utility.yul\":4170:4288   */\n      pop\n      pop\n      jump\t// out\n        /* \"#utility.yul\":4294:4516   */\n    tag_21:\n        /* \"#utility.yul\":4387:4391   */\n      0x00\n        /* \"#utility.yul\":4425:4427   */\n      0x20\n        /* \"#utility.yul\":4414:4423   */\n      dup3\n        /* \"#utility.yul\":4410:4428   */\n      add\n        /* \"#utility.yul\":4402:4428   */\n      swap1\n      pop\n        /* \"#utility.yul\":4438:4509   */\n      tag_155\n        /* \"#utility.yul\":4506:4507   */\n      0x00\n        /* \"#utility.yul\":4495:4504   */\n      dup4\n        /* \"#utility.yul\":4491:4508   */\n      add\n        /* \"#utility.yul\":4482:4488   */\n      dup5\n        /* \"#utility.yul\":4438:4509   */\n      tag_112\n      jump\t// in\n    tag_155:\n        /* \"#utility.yul\":4294:4516   */\n      swap3\n      swap2\n      pop\n      pop\n      jump\t// out\n        /* \"#utility.yul\":4522:4941   */\n    tag_35:\n        /* \"#utility.yul\":4688:4692   */\n      0x00\n        /* \"#utility.yul\":4726:4728   */\n      0x20\n        /* \"#utility.yul\":4715:4724   */\n      dup3\n        /* \"#utility.yul\":4711:4729   */\n      add\n        /* \"#utility.yul\":4703:4729   */\n      swap1\n      pop\n        /* \"#utility.yul\":4775:4784   */\n      dup2\n        /* \"#utility.yul\":4769:4773   */\n      dup2\n        /* \"#utility.yul\":4765:4785   */\n      sub\n        /* \"#utility.yul\":4761:4762   */\n      0x00\n        /* \"#utility.yul\":4750:4759   */\n      dup4\n        /* \"#utility.yul\":4746:4763   */\n      add\n        /* \"#utility.yul\":4739:4786   */\n      mstore\n        /* \"#utility.yul\":4803:4934   */\n      tag_157\n        /* \"#utility.yul\":4929:4933   */\n      dup2\n        /* \"#utility.yul\":4803:4934   */\n      tag_130\n      jump\t// in\n    tag_157:\n        /* \"#utility.yul\":4795:4934   */\n      swap1\n      pop\n        /* \"#utility.yul\":4522:4941   */\n      swap2\n      swap1\n      pop\n      jump\t// out\n        /* \"#utility.yul\":4947:5366   */\n    tag_58:\n        /* \"#utility.yul\":5113:5117   */\n      0x00\n        /* \"#utility.yul\":5151:5153   */\n      0x20\n        /* \"#utility.yul\":5140:5149   */\n      dup3\n        /* \"#utility.yul\":5136:5154   */\n      add\n        /* \"#utility.yul\":5128:5154   */\n      swap1\n      pop\n        /* \"#utility.yul\":5200:5209   */\n      dup2\n        /* \"#utility.yul\":5194:5198   */\n      dup2\n        /* \"#utility.yul\":5190:5210   */\n      sub\n        /* \"#utility.yul\":5186:5187   */\n      0x00\n        /* \"#utility.yul\":5175:5184   */\n      dup4\n        /* \"#utility.yul\":5171:5188   */\n      add\n        /* \"#utility.yul\":5164:5211   */\n      mstore\n        /* \"#utility.yul\":5228:5359   */\n      tag_159\n        /* \"#utility.yul\":5354:5358   */\n      dup2\n        /* \"#utility.yul\":5228:5359   */\n      tag_135\n      jump\t// in\n    tag_159:\n        /* \"#utility.yul\":5220:5359   */\n      swap1\n      pop\n        /* \"#utility.yul\":4947:5366   */\n      swap2\n      swap1\n      pop\n      jump\t// out\n        /* \"#utility.yul\":5372:5791   */\n    tag_52:\n        /* \"#utility.yul\":5538:5542   */\n      0x00\n        /* \"#utility.yul\":5576:5578   */\n      0x20\n        /* \"#utility.yul\":5565:5574   */\n      dup3\n        /* \"#utility.yul\":5561:5579   */\n      add\n        /* \"#utility.yul\":5553:5579   */\n      swap1\n      pop\n        /* \"#utility.yul\":5625:5634   */\n      dup2\n        /* \"#utility.yul\":5619:5623   */\n      dup2\n        /* \"#utility.yul\":5615:5635   */\n      sub\n        /* \"#utility.yul\":5611:5612   */\n      0x00\n        /* \"#utility.yul\":5600:5609   */\n      dup4\n        /* \"#utility.yul\":5596:5613   */\n      add\n        /* \"#utility.yul\":5589:5636   */\n      mstore\n        /* \"#utility.yul\":5653:5784   */\n      tag_161\n        /* \"#utility.yul\":5779:5783   */\n      dup2\n        /* \"#utility.yul\":5653:5784   */\n      tag_140\n      jump\t// in\n    tag_161:\n        /* \"#utility.yul\":5645:5784   */\n      swap1\n      pop\n        /* \"#utility.yul\":5372:5791   */\n      swap2\n      swap1\n      pop\n      jump\t// out\n        /* \"#utility.yul\":5797:6216   */\n    tag_55:\n        /* \"#utility.yul\":5963:5967   */\n      0x00\n        /* \"#utility.yul\":6001:6003   */\n      0x20\n        /* \"#utility.yul\":5990:5999   */\n      dup3\n        /* \"#utility.yul\":5986:6004   */\n      add\n        /* \"#utility.yul\":5978:6004   */\n      swap1\n      pop\n        /* \"#utility.yul\":6050:6059   */\n      dup2\n        /* \"#utility.yul\":6044:6048   */\n      dup2\n        /* \"#utility.yul\":6040:6060   */\n      sub\n        /* \"#utility.yul\":6036:6037   */\n      0x00\n        /* \"#utility.yul\":6025:6034   */\n      dup4\n        /* \"#utility.yul\":6021:6038   */\n      add\n        /* \"#utility.yul\":6014:6061   */\n      mstore\n        /* \"#utility.yul\":6078:6209   */\n      tag_163\n        /* \"#utility.yul\":6204:6208   */\n      dup2\n        /* \"#utility.yul\":6078:6209   */\n      tag_145\n      jump\t// in\n    tag_163:\n        /* \"#utility.yul\":6070:6209   */\n      swap1\n      pop\n        /* \"#utility.yul\":5797:6216   */\n      swap2\n      swap1\n      pop\n      jump\t// out\n        /* \"#utility.yul\":6222:6444   */\n    tag_11:\n        /* \"#utility.yul\":6315:6319   */\n      0x00\n        /* \"#utility.yul\":6353:6355   */\n      0x20\n        /* \"#utility.yul\":6342:6351   */\n      dup3\n        /* \"#utility.yul\":6338:6356   */\n      add\n        /* \"#utility.yul\":6330:6356   */\n      swap1\n      pop\n        /* \"#utility.yul\":6366:6437   */\n      tag_165\n        /* \"#utility.yul\":6434:6435   */\n      0x00\n        /* \"#utility.yul\":6423:6432   */\n      dup4\n        /* \"#utility.yul\":6419:6436   */\n      add\n        /* \"#utility.yul\":6410:6416   */\n      dup5\n        /* \"#utility.yul\":6366:6437   */\n      tag_150\n      jump\t// in\n    tag_165:\n        /* \"#utility.yul\":6222:6444   */\n      swap3\n      swap2\n      pop\n      pop\n      jump\t// out\n        /* \"#utility.yul\":6450:6782   */\n    tag_62:\n        /* \"#utility.yul\":6571:6575   */\n      0x00\n        /* \"#utility.yul\":6609:6611   */\n      0x40\n        /* \"#utility.yul\":6598:6607   */\n      dup3\n        /* \"#utility.yul\":6594:6612   */\n      add\n        /* \"#utility.yul\":6586:6612   */\n      swap1\n      pop\n        /* \"#utility.yul\":6622:6693   */\n      tag_167\n        /* \"#utility.yul\":6690:6691   */\n      0x00\n        /* \"#utility.yul\":6679:6688   */\n      dup4\n        /* \"#utility.yul\":6675:6692   */\n      add\n        /* \"#utility.yul\":6666:6672   */\n      dup6\n        /* \"#utility.yul\":6622:6693   */\n      tag_150\n      jump\t// in\n    tag_167:\n        /* \"#utility.yul\":6703:6775   */\n      tag_168\n        /* \"#utility.yul\":6771:6773   */\n      0x20\n        /* \"#utility.yul\":6760:6769   */\n      dup4\n        /* \"#utility.yul\":6756:6774   */\n      add\n        /* \"#utility.yul\":6747:6753   */\n      dup5\n        /* \"#utility.yul\":6703:6775   */\n      tag_112\n      jump\t// in\n    tag_168:\n        /* \"#utility.yul\":6450:6782   */\n      swap4\n      swap3\n      pop\n      pop\n      pop\n      jump\t// out\n        /* \"#utility.yul\":6788:7432   */\n    tag_41:\n        /* \"#utility.yul\":6985:6989   */\n      0x00\n        /* \"#utility.yul\":7023:7026   */\n      0x80\n        /* \"#utility.yul\":7012:7021   */\n      dup3\n        /* \"#utility.yul\":7008:7027   */\n      add\n        /* \"#utility.yul\":7000:7027   */\n      swap1\n      pop\n        /* \"#utility.yul\":7037:7108   */\n      tag_170\n        /* \"#utility.yul\":7105:7106   */\n      0x00\n        /* \"#utility.yul\":7094:7103   */\n      dup4\n        /* \"#utility.yul\":7090:7107   */\n      add\n        /* \"#utility.yul\":7081:7087   */\n      dup8\n        /* \"#utility.yul\":7037:7108   */\n      tag_150\n      jump\t// in\n    tag_170:\n        /* \"#utility.yul\":7155:7164   */\n      dup2\n        /* \"#utility.yul\":7149:7153   */\n      dup2\n        /* \"#utility.yul\":7145:7165   */\n      sub\n        /* \"#utility.yul\":7140:7142   */\n      0x20\n        /* \"#utility.yul\":7129:7138   */\n      dup4\n        /* \"#utility.yul\":7125:7143   */\n      add\n        /* \"#utility.yul\":7118:7166   */\n      mstore\n        /* \"#utility.yul\":7183:7261   */\n      tag_171\n        /* \"#utility.yul\":7256:7260   */\n      dup2\n        /* \"#utility.yul\":7247:7253   */\n      dup7\n        /* \"#utility.yul\":7183:7261   */\n      tag_120\n      jump\t// in\n    tag_171:\n        /* \"#utility.yul\":7175:7261   */\n      swap1\n      pop\n        /* \"#utility.yul\":7271:7343   */\n      tag_172\n        /* \"#utility.yul\":7339:7341   */\n      0x40\n        /* \"#utility.yul\":7328:7337   */\n      dup4\n        /* \"#utility.yul\":7324:7342   */\n      add\n        /* \"#utility.yul\":7315:7321   */\n      dup6\n        /* \"#utility.yul\":7271:7343   */\n      tag_150\n      jump\t// in\n    tag_172:\n        /* \"#utility.yul\":7353:7425   */\n      tag_173\n        /* \"#utility.yul\":7421:7423   */\n      0x60\n        /* \"#utility.yul\":7410:7419   */\n      dup4\n        /* \"#utility.yul\":7406:7424   */\n      add\n        /* \"#utility.yul\":7397:7403   */\n      dup5\n        /* \"#utility.yul\":7353:7425   */\n      tag_112\n      jump\t// in\n    tag_173:\n        /* \"#utility.yul\":6788:7432   */\n      swap6\n      swap5\n      pop\n      pop\n      pop\n      pop\n      pop\n      jump\t// out\n        /* \"#utility.yul\":7438:8213   */\n    tag_28:\n        /* \"#utility.yul\":7673:7677   */\n      0x00\n        /* \"#utility.yul\":7711:7714   */\n      0xa0\n        /* \"#utility.yul\":7700:7709   */\n      dup3\n        /* \"#utility.yul\":7696:7715   */\n      add\n        /* \"#utility.yul\":7688:7715   */\n      swap1\n      pop\n        /* \"#utility.yul\":7725:7796   */\n      tag_175\n        /* \"#utility.yul\":7793:7794   */\n      0x00\n        /* \"#utility.yul\":7782:7791   */\n      dup4\n        /* \"#utility.yul\":7778:7795   */\n      add\n        /* \"#utility.yul\":7769:7775   */\n      dup9\n        /* \"#utility.yul\":7725:7796   */\n      tag_150\n      jump\t// in\n    tag_175:\n        /* \"#utility.yul\":7843:7852   */\n      dup2\n        /* \"#utility.yul\":7837:7841   */\n      dup2\n        /* \"#utility.yul\":7833:7853   */\n      sub\n        /* \"#utility.yul\":7828:7830   */\n      0x20\n        /* \"#utility.yul\":7817:7826   */\n      dup4\n        /* \"#utility.yul\":7813:7831   */\n      add\n        /* \"#utility.yul\":7806:7854   */\n      mstore\n        /* \"#utility.yul\":7871:7949   */\n      tag_176\n        /* \"#utility.yul\":7944:7948   */\n      dup2\n        /* \"#utility.yul\":7935:7941   */\n      dup8\n        /* \"#utility.yul\":7871:7949   */\n      tag_120\n      jump\t// in\n    tag_176:\n        /* \"#utility.yul\":7863:7949   */\n      swap1\n      pop\n        /* \"#utility.yul\":7959:8031   */\n      tag_177\n        /* \"#utility.yul\":8027:8029   */\n      0x40\n        /* \"#utility.yul\":8016:8025   */\n      dup4\n        /* \"#utility.yul\":8012:8030   */\n      add\n        /* \"#utility.yul\":8003:8009   */\n      dup7\n        /* \"#utility.yul\":7959:8031   */\n      tag_150\n      jump\t// in\n    tag_177:\n        /* \"#utility.yul\":8041:8129   */\n      tag_178\n        /* \"#utility.yul\":8125:8127   */\n      0x60\n        /* \"#utility.yul\":8114:8123   */\n      dup4\n        /* \"#utility.yul\":8110:8128   */\n      add\n        /* \"#utility.yul\":8101:8107   */\n      dup6\n        /* \"#utility.yul\":8041:8129   */\n      tag_108\n      jump\t// in\n    tag_178:\n        /* \"#utility.yul\":8139:8206   */\n      tag_179\n        /* \"#utility.yul\":8201:8204   */\n      0x80\n        /* \"#utility.yul\":8190:8199   */\n      dup4\n        /* \"#utility.yul\":8186:8205   */\n      add\n        /* \"#utility.yul\":8177:8183   */\n      dup5\n        /* \"#utility.yul\":8139:8206   */\n      tag_116\n      jump\t// in\n    tag_179:\n        /* \"#utility.yul\":7438:8213   */\n      swap7\n      swap6\n      pop\n      pop\n      pop\n      pop\n      pop\n      pop\n      jump\t// out\n        /* \"#utility.yul\":8219:8348   */\n    tag_79:\n        /* \"#utility.yul\":8253:8259   */\n      0x00\n        /* \"#utility.yul\":8280:8300   */\n      tag_181\n      tag_182\n      jump\t// in\n    tag_181:\n        /* \"#utility.yul\":8270:8300   */\n      swap1\n      pop\n        /* \"#utility.yul\":8309:8342   */\n      tag_183\n        /* \"#utility.yul\":8337:8341   */\n      dup3\n        /* \"#utility.yul\":8329:8335   */\n      dup3\n        /* \"#utility.yul\":8309:8342   */\n      tag_184\n      jump\t// in\n    tag_183:\n        /* \"#utility.yul\":8219:8348   */\n      swap2\n      swap1\n      pop\n      jump\t// out\n        /* \"#utility.yul\":8354:8429   */\n    tag_182:\n        /* \"#utility.yul\":8387:8393   */\n      0x00\n        /* \"#utility.yul\":8420:8422   */\n      0x40\n        /* \"#utility.yul\":8414:8423   */\n      mload\n        /* \"#utility.yul\":8404:8423   */\n      swap1\n      pop\n        /* \"#utility.yul\":8354:8429   */\n      swap1\n      jump\t// out\n        /* \"#utility.yul\":8435:8743   */\n    tag_78:\n        /* \"#utility.yul\":8497:8501   */\n      0x00\n        /* \"#utility.yul\":8587:8605   */\n      0xffffffffffffffff\n        /* \"#utility.yul\":8579:8585   */\n      dup3\n        /* \"#utility.yul\":8576:8606   */\n      gt\n        /* \"#utility.yul\":8573:8629   */\n      iszero\n      tag_187\n      jumpi\n        /* \"#utility.yul\":8609:8627   */\n      tag_188\n      tag_189\n      jump\t// in\n    tag_188:\n        /* \"#utility.yul\":8573:8629   */\n    tag_187:\n        /* \"#utility.yul\":8647:8676   */\n      tag_190\n        /* \"#utility.yul\":8669:8675   */\n      dup3\n        /* \"#utility.yul\":8647:8676   */\n      tag_129\n      jump\t// in\n    tag_190:\n        /* \"#utility.yul\":8639:8676   */\n      swap1\n      pop\n        /* \"#utility.yul\":8731:8735   */\n      0x20\n        /* \"#utility.yul\":8725:8729   */\n      dup2\n        /* \"#utility.yul\":8721:8736   */\n      add\n        /* \"#utility.yul\":8713:8736   */\n      swap1\n      pop\n        /* \"#utility.yul\":8435:8743   */\n      swap2\n      swap1\n      pop\n      jump\t// out\n        /* \"#utility.yul\":8749:8848   */\n    tag_123:\n        /* \"#utility.yul\":8801:8807   */\n      0x00\n        /* \"#utility.yul\":8835:8840   */\n      dup2\n        /* \"#utility.yul\":8829:8841   */\n      mload\n        /* \"#utility.yul\":8819:8841   */\n      swap1\n      pop\n        /* \"#utility.yul\":8749:8848   */\n      swap2\n      swap1\n      pop\n      jump\t// out\n        /* \"#utility.yul\":8854:9023   */\n    tag_125:\n        /* \"#utility.yul\":8938:8949   */\n      0x00\n        /* \"#utility.yul\":8972:8978   */\n      dup3\n        /* \"#utility.yul\":8967:8970   */\n      dup3\n        /* \"#utility.yul\":8960:8979   */\n      mstore\n        /* \"#utility.yul\":9012:9016   */\n      0x20\n        /* \"#utility.yul\":9007:9010   */\n      dup3\n        /* \"#utility.yul\":9003:9017   */\n      add\n        /* \"#utility.yul\":8988:9017   */\n      swap1\n      pop\n        /* \"#utility.yul\":8854:9023   */\n      swap3\n      swap2\n      pop\n      pop\n      jump\t// out\n        /* \"#utility.yul\":9029:9125   */\n    tag_115:\n        /* \"#utility.yul\":9066:9073   */\n      0x00\n        /* \"#utility.yul\":9095:9119   */\n      tag_194\n        /* \"#utility.yul\":9113:9118   */\n      dup3\n        /* \"#utility.yul\":9095:9119   */\n      tag_195\n      jump\t// in\n    tag_194:\n        /* \"#utility.yul\":9084:9119   */\n      swap1\n      pop\n        /* \"#utility.yul\":9029:9125   */\n      swap2\n      swap1\n      pop\n      jump\t// out\n        /* \"#utility.yul\":9131:9235   */\n    tag_111:\n        /* \"#utility.yul\":9176:9183   */\n      0x00\n        /* \"#utility.yul\":9205:9229   */\n      tag_197\n        /* \"#utility.yul\":9223:9228   */\n      dup3\n        /* \"#utility.yul\":9205:9229   */\n      tag_195\n      jump\t// in\n    tag_197:\n        /* \"#utility.yul\":9194:9229   */\n      swap1\n      pop\n        /* \"#utility.yul\":9131:9235   */\n      swap2\n      swap1\n      pop\n      jump\t// out\n        /* \"#utility.yul\":9241:9331   */\n    tag_119:\n        /* \"#utility.yul\":9275:9282   */\n      0x00\n        /* \"#utility.yul\":9318:9323   */\n      dup2\n        /* \"#utility.yul\":9311:9324   */\n      iszero\n        /* \"#utility.yul\":9304:9325   */\n      iszero\n        /* \"#utility.yul\":9293:9325   */\n      swap1\n      pop\n        /* \"#utility.yul\":9241:9331   */\n      swap2\n      swap1\n      pop\n      jump\t// out\n        /* \"#utility.yul\":9337:9463   */\n    tag_195:\n        /* \"#utility.yul\":9374:9381   */\n      0x00\n        /* \"#utility.yul\":9414:9456   */\n      0xffffffffffffffffffffffffffffffffffffffff\n        /* \"#utility.yul\":9407:9412   */\n      dup3\n        /* \"#utility.yul\":9403:9457   */\n      and\n        /* \"#utility.yul\":9392:9457   */\n      swap1\n      pop\n        /* \"#utility.yul\":9337:9463   */\n      swap2\n      swap1\n      pop\n      jump\t// out\n        /* \"#utility.yul\":9469:9546   */\n    tag_153:\n        /* \"#utility.yul\":9506:9513   */\n      0x00\n        /* \"#utility.yul\":9535:9540   */\n      dup2\n        /* \"#utility.yul\":9524:9540   */\n      swap1\n      pop\n        /* \"#utility.yul\":9469:9546   */\n      swap2\n      swap1\n      pop\n      jump\t// out\n        /* \"#utility.yul\":9552:9706   */\n    tag_84:\n        /* \"#utility.yul\":9636:9642   */\n      dup3\n        /* \"#utility.yul\":9631:9634   */\n      dup2\n        /* \"#utility.yul\":9626:9629   */\n      dup4\n        /* \"#utility.yul\":9613:9643   */\n      calldatacopy\n        /* \"#utility.yul\":9698:9699   */\n      0x00\n        /* \"#utility.yul\":9689:9695   */\n      dup4\n        /* \"#utility.yul\":9684:9687   */\n      dup4\n        /* \"#utility.yul\":9680:9696   */\n      add\n        /* \"#utility.yul\":9673:9700   */\n      mstore\n        /* \"#utility.yul\":9552:9706   */\n      pop\n      pop\n      pop\n      jump\t// out\n        /* \"#utility.yul\":9712:10019   */\n    tag_127:\n        /* \"#utility.yul\":9780:9781   */\n      0x00\n        /* \"#utility.yul\":9790:9903   */\n    tag_203:\n        /* \"#utility.yul\":9804:9810   */\n      dup4\n        /* \"#utility.yul\":9801:9802   */\n      dup2\n        /* \"#utility.yul\":9798:9811   */\n      lt\n        /* \"#utility.yul\":9790:9903   */\n      iszero\n      tag_205\n      jumpi\n        /* \"#utility.yul\":9889:9890   */\n      dup1\n        /* \"#utility.yul\":9884:9887   */\n      dup3\n        /* \"#utility.yul\":9880:9891   */\n      add\n        /* \"#utility.yul\":9874:9892   */\n      mload\n        /* \"#utility.yul\":9870:9871   */\n      dup2\n        /* \"#utility.yul\":9865:9868   */\n      dup5\n        /* \"#utility.yul\":9861:9872   */\n      add\n        /* \"#utility.yul\":9854:9893   */\n      mstore\n        /* \"#utility.yul\":9826:9828   */\n      0x20\n        /* \"#utility.yul\":9823:9824   */\n      dup2\n        /* \"#utility.yul\":9819:9829   */\n      add\n        /* \"#utility.yul\":9814:9829   */\n      swap1\n      pop\n        /* \"#utility.yul\":9790:9903   */\n      jump(tag_203)\n    tag_205:\n        /* \"#utility.yul\":9921:9927   */\n      dup4\n        /* \"#utility.yul\":9918:9919   */\n      dup2\n        /* \"#utility.yul\":9915:9928   */\n      gt\n        /* \"#utility.yul\":9912:10013   */\n      iszero\n      tag_206\n      jumpi\n        /* \"#utility.yul\":10001:10002   */\n      0x00\n        /* \"#utility.yul\":9992:9998   */\n      dup5\n        /* \"#utility.yul\":9987:9990   */\n      dup5\n        /* \"#utility.yul\":9983:9999   */\n      add\n        /* \"#utility.yul\":9976:10003   */\n      mstore\n        /* \"#utility.yul\":9912:10013   */\n    tag_206:\n        /* \"#utility.yul\":9761:10019   */\n      pop\n        /* \"#utility.yul\":9712:10019   */\n      pop\n      pop\n      pop\n      jump\t// out\n        /* \"#utility.yul\":10025:10345   */\n    tag_43:\n        /* \"#utility.yul\":10069:10075   */\n      0x00\n        /* \"#utility.yul\":10106:10107   */\n      0x02\n        /* \"#utility.yul\":10100:10104   */\n      dup3\n        /* \"#utility.yul\":10096:10108   */\n      div\n        /* \"#utility.yul\":10086:10108   */\n      swap1\n      pop\n        /* \"#utility.yul\":10153:10154   */\n      0x01\n        /* \"#utility.yul\":10147:10151   */\n      dup3\n        /* \"#utility.yul\":10143:10155   */\n      and\n        /* \"#utility.yul\":10174:10192   */\n      dup1\n        /* \"#utility.yul\":10164:10245   */\n      tag_208\n      jumpi\n        /* \"#utility.yul\":10230:10234   */\n      0x7f\n        /* \"#utility.yul\":10222:10228   */\n      dup3\n        /* \"#utility.yul\":10218:10235   */\n      and\n        /* \"#utility.yul\":10208:10235   */\n      swap2\n      pop\n        /* \"#utility.yul\":10164:10245   */\n    tag_208:\n        /* \"#utility.yul\":10292:10294   */\n      0x20\n        /* \"#utility.yul\":10284:10290   */\n      dup3\n        /* \"#utility.yul\":10281:10295   */\n      lt\n        /* \"#utility.yul\":10261:10279   */\n      dup2\n        /* \"#utility.yul\":10258:10296   */\n      eq\n        /* \"#utility.yul\":10255:10339   */\n      iszero\n      tag_209\n      jumpi\n        /* \"#utility.yul\":10311:10329   */\n      tag_210\n      tag_211\n      jump\t// in\n    tag_210:\n        /* \"#utility.yul\":10255:10339   */\n    tag_209:\n        /* \"#utility.yul\":10076:10345   */\n      pop\n        /* \"#utility.yul\":10025:10345   */\n      swap2\n      swap1\n      pop\n      jump\t// out\n        /* \"#utility.yul\":10351:10632   */\n    tag_184:\n        /* \"#utility.yul\":10434:10461   */\n      tag_213\n        /* \"#utility.yul\":10456:10460   */\n      dup3\n        /* \"#utility.yul\":10434:10461   */\n      tag_129\n      jump\t// in\n    tag_213:\n        /* \"#utility.yul\":10426:10432   */\n      dup2\n        /* \"#utility.yul\":10422:10462   */\n      add\n        /* \"#utility.yul\":10564:10570   */\n      dup2\n        /* \"#utility.yul\":10552:10562   */\n      dup2\n        /* \"#utility.yul\":10549:10571   */\n      lt\n        /* \"#utility.yul\":10528:10546   */\n      0xffffffffffffffff\n        /* \"#utility.yul\":10516:10526   */\n      dup3\n        /* \"#utility.yul\":10513:10547   */\n      gt\n        /* \"#utility.yul\":10510:10572   */\n      or\n        /* \"#utility.yul\":10507:10595   */\n      iszero\n      tag_214\n      jumpi\n        /* \"#utility.yul\":10575:10593   */\n      tag_215\n      tag_189\n      jump\t// in\n    tag_215:\n        /* \"#utility.yul\":10507:10595   */\n    tag_214:\n        /* \"#utility.yul\":10615:10625   */\n      dup1\n        /* \"#utility.yul\":10611:10613   */\n      0x40\n        /* \"#utility.yul\":10604:10626   */\n      mstore\n        /* \"#utility.yul\":10394:10632   */\n      pop\n        /* \"#utility.yul\":10351:10632   */\n      pop\n      pop\n      jump\t// out\n        /* \"#utility.yul\":10638:10871   */\n    tag_37:\n        /* \"#utility.yul\":10677:10680   */\n      0x00\n        /* \"#utility.yul\":10700:10724   */\n      tag_217\n        /* \"#utility.yul\":10718:10723   */\n      dup3\n        /* \"#utility.yul\":10700:10724   */\n      tag_153\n      jump\t// in\n    tag_217:\n        /* \"#utility.yul\":10691:10724   */\n      swap2\n      pop\n        /* \"#utility.yul\":10746:10812   */\n      0xffffffffffffffffffffffffffffffffffffffffffffffffffffffffffffffff\n        /* \"#utility.yul\":10739:10744   */\n      dup3\n        /* \"#utility.yul\":10736:10813   */\n      eq\n        /* \"#utility.yul\":10733:10836   */\n      iszero\n      tag_218\n      jumpi\n        /* \"#utility.yul\":10816:10834   */\n      tag_219\n      tag_220\n      jump\t// in\n    tag_219:\n        /* \"#utility.yul\":10733:10836   */\n    tag_218:\n        /* \"#utility.yul\":10863:10864   */\n      0x01\n        /* \"#utility.yul\":10856:10861   */\n      dup3\n        /* \"#utility.yul\":10852:10865   */\n      add\n        /* \"#utility.yul\":10845:10865   */\n      swap1\n      pop\n        /* \"#utility.yul\":10638:10871   */\n      swap2\n      swap1\n      pop\n      jump\t// out\n        /* \"#utility.yul\":10877:11057   */\n    tag_220:\n        /* \"#utility.yul\":10925:11002   */\n      0x4e487b7100000000000000000000000000000000000000000000000000000000\n        /* \"#utility.yul\":10922:10923   */\n      0x00\n        /* \"#utility.yul\":10915:11003   */\n      mstore\n        /* \"#utility.yul\":11022:11026   */\n      0x11\n        /* \"#utility.yul\":11019:11020   */\n      0x04\n        /* \"#utility.yul\":11012:11027   */\n      mstore\n        /* \"#utility.yul\":11046:11050   */\n      0x24\n        /* \"#utility.yul\":11043:11044   */\n      0x00\n        /* \"#utility.yul\":11036:11051   */\n      revert\n        /* \"#utility.yul\":11063:11243   */\n    tag_211:\n        /* \"#utility.yul\":11111:11188   */\n      0x4e487b7100000000000000000000000000000000000000000000000000000000\n        /* \"#utility.yul\":11108:11109   */\n      0x00\n        /* \"#utility.yul\":11101:11189   */\n      mstore\n        /* \"#utility.yul\":11208:11212   */\n      0x22\n        /* \"#utility.yul\":11205:11206   */\n      0x04\n        /* \"#utility.yul\":11198:11213   */\n      mstore\n        /* \"#utility.yul\":11232:11236   */\n      0x24\n        /* \"#utility.yul\":11229:11230   */\n      0x00\n        /* \"#utility.yul\":11222:11237   */\n      revert\n        /* \"#utility.yul\":11249:11429   */\n    tag_189:\n        /* \"#utility.yul\":11297:11374   */\n      0x4e487b7100000000000000000000000000000000000000000000000000000000\n        /* \"#utility.yul\":11294:11295   */\n      0x00\n        /* \"#utility.yul\":11287:11375   */\n      mstore\n        /* \"#utility.yul\":11394:11398   */\n      0x41\n        /* \"#utility.yul\":11391:11392   */\n      0x04\n        /* \"#utility.yul\":11384:11399   */\n      mstore\n        /* \"#utility.yul\":11418:11422   */\n      0x24\n        /* \"#utility.yul\":11415:11416   */\n      0x00\n        /* \"#utility.yul\":11408:11423   */\n      revert\n        /* \"#utility.yul\":11435:11552   */\n    tag_89:\n        /* \"#utility.yul\":11544:11545   */\n      0x00\n        /* \"#utility.yul\":11541:11542   */\n      dup1\n        /* \"#utility.yul\":11534:11546   */\n      revert\n        /* \"#utility.yul\":11558:11675   */\n    tag_82:\n        /* \"#utility.yul\":11667:11668   */\n      0x00\n        /* \"#utility.yul\":11664:11665   */\n      dup1\n        /* \"#utility.yul\":11657:11669   */\n      revert\n        /* \"#utility.yul\":11681:11798   */\n    tag_101:\n        /* \"#utility.yul\":11790:11791   */\n      0x00\n        /* \"#utility.yul\":11787:11788   */\n      dup1\n        /* \"#utility.yul\":11780:11792   */\n      revert\n        /* \"#utility.yul\":11804:11921   */\n    tag_98:\n        /* \"#utility.yul\":11913:11914   */\n      0x00\n        /* \"#utility.yul\":11910:11911   */\n      dup1\n        /* \"#utility.yul\":11903:11915   */\n      revert\n        /* \"#utility.yul\":11927:12029   */\n    tag_129:\n        /* \"#utility.yul\":11968:11974   */\n      0x00\n        /* \"#utility.yul\":12019:12021   */\n      0x1f\n        /* \"#utility.yul\":12015:12022   */\n      not\n        /* \"#utility.yul\":12010:12012   */\n      0x1f\n        /* \"#utility.yul\":12003:12008   */\n      dup4\n        /* \"#utility.yul\":11999:12013   */\n      add\n        /* \"#utility.yul\":11995:12023   */\n      and\n        /* \"#utility.yul\":11985:12023   */\n      swap1\n      pop\n        /* \"#utility.yul\":11927:12029   */\n      swap2\n      swap1\n      pop\n      jump\t// out\n        /* \"#utility.yul\":12035:12216   */\n    tag_134:\n        /* \"#utility.yul\":12175:12208   */\n      0x5072696365206d7573742062652067726561746572207468616e207a65726f00\n        /* \"#utility.yul\":12171:12172   */\n      0x00\n        /* \"#utility.yul\":12163:12169   */\n      dup3\n        /* \"#utility.yul\":12159:12173   */\n      add\n        /* \"#utility.yul\":12152:12209   */\n      mstore\n        /* \"#utility.yul\":12035:12216   */\n      pop\n      jump\t// out\n        /* \"#utility.yul\":12222:12388   */\n    tag_139:\n        /* \"#utility.yul\":12362:12380   */\n      0x4e6f7420656e6f75676820457468657200000000000000000000000000000000\n        /* \"#utility.yul\":12358:12359   */\n      0x00\n        /* \"#utility.yul\":12350:12356   */\n      dup3\n        /* \"#utility.yul\":12346:12360   */\n      add\n        /* \"#utility.yul\":12339:12381   */\n      mstore\n        /* \"#utility.yul\":12222:12388   */\n      pop\n      jump\t// out\n        /* \"#utility.yul\":12394:12563   */\n    tag_144:\n        /* \"#utility.yul\":12534:12555   */\n      0x4974656d20646f6573206e6f7420657869737400000000000000000000000000\n        /* \"#utility.yul\":12530:12531   */\n      0x00\n        /* \"#utility.yul\":12522:12528   */\n      dup3\n        /* \"#utility.yul\":12518:12532   */\n      add\n        /* \"#utility.yul\":12511:12556   */\n      mstore\n        /* \"#utility.yul\":12394:12563   */\n      pop\n      jump\t// out\n        /* \"#utility.yul\":12569:12736   */\n    tag_149:\n        /* \"#utility.yul\":12709:12728   */\n      0x4974656d20616c726561647920736f6c64000000000000000000000000000000\n        /* \"#utility.yul\":12705:12706   */\n      0x00\n        /* \"#utility.yul\":12697:12703   */\n      dup3\n        /* \"#utility.yul\":12693:12707   */\n      add\n        /* \"#utility.yul\":12686:12729   */\n      mstore\n        /* \"#utility.yul\":12569:12736   */\n      pop\n      jump\t// out\n        /* \"#utility.yul\":12742:12864   */\n    tag_94:\n        /* \"#utility.yul\":12815:12839   */\n      tag_234\n        /* \"#utility.yul\":12833:12838   */\n      dup2\n        /* \"#utility.yul\":12815:12839   */\n      tag_153\n      jump\t// in\n    tag_234:\n        /* \"#utility.yul\":12808:12813   */\n      dup2\n        /* \"#utility.yul\":12805:12840   */\n      eq\n        /* \"#utility.yul\":12795:12858   */\n      tag_235\n      jumpi\n        /* \"#utility.yul\":12854:12855   */\n      0x00\n        /* \"#utility.yul\":12851:12852   */\n      dup1\n        /* \"#utility.yul\":12844:12856   */\n      revert\n        /* \"#utility.yul\":12795:12858   */\n    tag_235:\n        /* \"#utility.yul\":12742:12864   */\n      pop\n      jump\t// out\n\n    auxdata: 0xa26469706673582212209b7566a05f098c67b02c9ab1747b6c439068b3de5850a1a5212ab830a28e773064736f6c63430008070033\n}\n",
				"bytecode": {
					"linkReferences": {},
					"object": "608060405234801561001057600080fd5b50336000806101000a81548173ffffffffffffffffffffffffffffffffffffffff021916908373ffffffffffffffffffffffffffffffffffffffff160217905550610d2e806100606000396000f3fe60806040526004361061004a5760003560e01c80636bfb0d011461004f5780638511c9371461007a5780638da5cb5b146100a3578063bfb231d2146100ce578063e7fb74c71461010f575b600080fd5b34801561005b57600080fd5b5061006461012b565b60405161007191906108e7565b60405180910390f35b34801561008657600080fd5b506100a1600480360381019061009c91906106c2565b610131565b005b3480156100af57600080fd5b506100b86102c1565b6040516100c5919061084c565b60405180910390f35b3480156100da57600080fd5b506100f560048036038101906100f0919061071e565b6102e5565b604051610106959493929190610977565b60405180910390f35b6101296004803603810190610124919061071e565b6103d0565b005b60015481565b60008111610174576040517f08c379a000000000000000000000000000000000000000000000000000000000815260040161016b90610867565b60405180910390fd5b6001600081548092919061018790610b42565b91905055506040518060a0016040528060015481526020018381526020018281526020013373ffffffffffffffffffffffffffffffffffffffff1681526020016000151581525060026000600154815260200190815260200160002060008201518160000155602082015181600101908051906020019061020992919061059a565b506040820151816002015560608201518160030160006101000a81548173ffffffffffffffffffffffffffffffffffffffff021916908373ffffffffffffffffffffffffffffffffffffffff16021790555060808201518160030160146101000a81548160ff0219169083151502179055509050507f16244e47af8a7d2c923faa2cab44315c0514c7aa830682bbb9cc8f0d37ad75486001548383336040516102b5949392919061092b565b60405180910390a15050565b60008054906101000a900473ffffffffffffffffffffffffffffffffffffffff1681565b600260205280600052604060002060009150905080600001549080600101805461030e90610adf565b80601f016020809104026020016040519081016040528092919081815260200182805461033a90610adf565b80156103875780601f1061035c57610100808354040283529160200191610387565b820191906000526020600020905b81548152906001019060200180831161036a57829003601f168201915b5050505050908060020154908060030160009054906101000a900473ffffffffffffffffffffffffffffffffffffffff16908060030160149054906101000a900460ff16905085565b60006002600083815260200190815260200160002090506000821180156103f957506001548211155b610438576040517f08c379a000000000000000000000000000000000000000000000000000000000815260040161042f906108a7565b60405180910390fd5b8060030160149054906101000a900460ff161561048a576040517f08c379a0000000000000000000000000000000000000000000000000000000008152600401610481906108c7565b60405180910390fd5b80600201543410156104d1576040517f08c379a00000000000000000000000000000000000000000000000000000000081526004016104c890610887565b60405180910390fd5b8060030160009054906101000a900473ffffffffffffffffffffffffffffffffffffffff1673ffffffffffffffffffffffffffffffffffffffff166108fc82600201549081150290604051600060405180830381858888f1935050505015801561053f573d6000803e3d6000fd5b5060018160030160146101000a81548160ff0219169083151502179055507f7de4035ced290be6d7724645d43bad448b5d8cc76743ff4da172c2d8e1caa0f5823360405161058e929190610902565b60405180910390a15050565b8280546105a690610adf565b90600052602060002090601f0160209004810192826105c8576000855561060f565b82601f106105e157805160ff191683800117855561060f565b8280016001018555821561060f579182015b8281111561060e5782518255916020019190600101906105f3565b5b50905061061c9190610620565b5090565b5b80821115610639576000816000905550600101610621565b5090565b600061065061064b846109f6565b6109d1565b90508281526020810184848401111561066c5761066b610c1d565b5b610677848285610a9d565b509392505050565b600082601f83011261069457610693610c18565b5b81356106a484826020860161063d565b91505092915050565b6000813590506106bc81610ce1565b92915050565b600080604083850312156106d9576106d8610c27565b5b600083013567ffffffffffffffff8111156106f7576106f6610c22565b5b6107038582860161067f565b9250506020610714858286016106ad565b9150509250929050565b60006020828403121561073457610733610c27565b5b6000610742848285016106ad565b91505092915050565b61075481610a55565b82525050565b61076381610a43565b82525050565b61077281610a67565b82525050565b600061078382610a27565b61078d8185610a32565b935061079d818560208601610aac565b6107a681610c2c565b840191505092915050565b60006107be601f83610a32565b91506107c982610c3d565b602082019050919050565b60006107e1601083610a32565b91506107ec82610c66565b602082019050919050565b6000610804601383610a32565b915061080f82610c8f565b602082019050919050565b6000610827601183610a32565b915061083282610cb8565b602082019050919050565b61084681610a93565b82525050565b6000602082019050610861600083018461075a565b92915050565b60006020820190508181036000830152610880816107b1565b9050919050565b600060208201905081810360008301526108a0816107d4565b9050919050565b600060208201905081810360008301526108c0816107f7565b9050919050565b600060208201905081810360008301526108e08161081a565b9050919050565b60006020820190506108fc600083018461083d565b92915050565b6000604082019050610917600083018561083d565b610924602083018461075a565b9392505050565b6000608082019050610940600083018761083d565b81810360208301526109528186610778565b9050610961604083018561083d565b61096e606083018461075a565b95945050505050565b600060a08201905061098c600083018861083d565b818103602083015261099e8187610778565b90506109ad604083018661083d565b6109ba606083018561074b565b6109c76080830184610769565b9695505050505050565b60006109db6109ec565b90506109e78282610b11565b919050565b6000604051905090565b600067ffffffffffffffff821115610a1157610a10610be9565b5b610a1a82610c2c565b9050602081019050919050565b600081519050919050565b600082825260208201905092915050565b6000610a4e82610a73565b9050919050565b6000610a6082610a73565b9050919050565b60008115159050919050565b600073ffffffffffffffffffffffffffffffffffffffff82169050919050565b6000819050919050565b82818337600083830152505050565b60005b83811015610aca578082015181840152602081019050610aaf565b83811115610ad9576000848401525b50505050565b60006002820490506001821680610af757607f821691505b60208210811415610b0b57610b0a610bba565b5b50919050565b610b1a82610c2c565b810181811067ffffffffffffffff82111715610b3957610b38610be9565b5b80604052505050565b6000610b4d82610a93565b91507fffffffffffffffffffffffffffffffffffffffffffffffffffffffffffffffff821415610b8057610b7f610b8b565b5b600182019050919050565b7f4e487b7100000000000000000000000000000000000000000000000000000000600052601160045260246000fd5b7f4e487b7100000000000000000000000000000000000000000000000000000000600052602260045260246000fd5b7f4e487b7100000000000000000000000000000000000000000000000000000000600052604160045260246000fd5b600080fd5b600080fd5b600080fd5b600080fd5b6000601f19601f8301169050919050565b7f5072696365206d7573742062652067726561746572207468616e207a65726f00600082015250565b7f4e6f7420656e6f75676820457468657200000000000000000000000000000000600082015250565b7f4974656d20646f6573206e6f7420657869737400000000000000000000000000600082015250565b7f4974656d20616c726561647920736f6c64000000000000000000000000000000600082015250565b610cea81610a93565b8114610cf557600080fd5b5056fea26469706673582212209b7566a05f098c67b02c9ab1747b6c439068b3de5850a1a5212ab830a28e773064736f6c63430008070033",
					"opcodes": "PUSH1 0x80 PUSH1 0x40 MSTORE CALLVALUE DUP1 ISZERO PUSH2 0x10 JUMPI PUSH1 0x0 DUP1 REVERT JUMPDEST POP CALLER PUSH1 0x0 DUP1 PUSH2 0x100 EXP DUP2 SLOAD DUP2 PUSH20 0xFFFFFFFFFFFFFFFFFFFFFFFFFFFFFFFFFFFFFFFF MUL NOT AND SWAP1 DUP4 PUSH20 0xFFFFFFFFFFFFFFFFFFFFFFFFFFFFFFFFFFFFFFFF AND MUL OR SWAP1 SSTORE POP PUSH2 0xD2E DUP1 PUSH2 0x60 PUSH1 0x0 CODECOPY PUSH1 0x0 RETURN INVALID PUSH1 0x80 PUSH1 0x40 MSTORE PUSH1 0x4 CALLDATASIZE LT PUSH2 0x4A JUMPI PUSH1 0x0 CALLDATALOAD PUSH1 0xE0 SHR DUP1 PUSH4 0x6BFB0D01 EQ PUSH2 0x4F JUMPI DUP1 PUSH4 0x8511C937 EQ PUSH2 0x7A JUMPI DUP1 PUSH4 0x8DA5CB5B EQ PUSH2 0xA3 JUMPI DUP1 PUSH4 0xBFB231D2 EQ PUSH2 0xCE JUMPI DUP1 PUSH4 0xE7FB74C7 EQ PUSH2 0x10F JUMPI JUMPDEST PUSH1 0x0 DUP1 REVERT JUMPDEST CALLVALUE DUP1 ISZERO PUSH2 0x5B JUMPI PUSH1 0x0 DUP1 REVERT JUMPDEST POP PUSH2 0x64 PUSH2 0x12B JUMP JUMPDEST PUSH1 0x40 MLOAD PUSH2 0x71 SWAP2 SWAP1 PUSH2 0x8E7 JUMP JUMPDEST PUSH1 0x40 MLOAD DUP1 SWAP2 SUB SWAP1 RETURN JUMPDEST CALLVALUE DUP1 ISZERO PUSH2 0x86 JUMPI PUSH1 0x0 DUP1 REVERT JUMPDEST POP PUSH2 0xA1 PUSH1 0x4 DUP1 CALLDATASIZE SUB DUP2 ADD SWAP1 PUSH2 0x9C SWAP2 SWAP1 PUSH2 0x6C2 JUMP JUMPDEST PUSH2 0x131 JUMP JUMPDEST STOP JUMPDEST CALLVALUE DUP1 ISZERO PUSH2 0xAF JUMPI PUSH1 0x0 DUP1 REVERT JUMPDEST POP PUSH2 0xB8 PUSH2 0x2C1 JUMP JUMPDEST PUSH1 0x40 MLOAD PUSH2 0xC5 SWAP2 SWAP1 PUSH2 0x84C JUMP JUMPDEST PUSH1 0x40 MLOAD DUP1 SWAP2 SUB SWAP1 RETURN JUMPDEST CALLVALUE DUP1 ISZERO PUSH2 0xDA JUMPI PUSH1 0x0 DUP1 REVERT JUMPDEST POP PUSH2 0xF5 PUSH1 0x4 DUP1 CALLDATASIZE SUB DUP2 ADD SWAP1 PUSH2 0xF0 SWAP2 SWAP1 PUSH2 0x71E JUMP JUMPDEST PUSH2 0x2E5 JUMP JUMPDEST PUSH1 0x40 MLOAD PUSH2 0x106 SWAP6 SWAP5 SWAP4 SWAP3 SWAP2 SWAP1 PUSH2 0x977 JUMP JUMPDEST PUSH1 0x40 MLOAD DUP1 SWAP2 SUB SWAP1 RETURN JUMPDEST PUSH2 0x129 PUSH1 0x4 DUP1 CALLDATASIZE SUB DUP2 ADD SWAP1 PUSH2 0x124 SWAP2 SWAP1 PUSH2 0x71E JUMP JUMPDEST PUSH2 0x3D0 JUMP JUMPDEST STOP JUMPDEST PUSH1 0x1 SLOAD DUP2 JUMP JUMPDEST PUSH1 0x0 DUP2 GT PUSH2 0x174 JUMPI PUSH1 0x40 MLOAD PUSH32 0x8C379A000000000000000000000000000000000000000000000000000000000 DUP2 MSTORE PUSH1 0x4 ADD PUSH2 0x16B SWAP1 PUSH2 0x867 JUMP JUMPDEST PUSH1 0x40 MLOAD DUP1 SWAP2 SUB SWAP1 REVERT JUMPDEST PUSH1 0x1 PUSH1 0x0 DUP2 SLOAD DUP1 SWAP3 SWAP2 SWAP1 PUSH2 0x187 SWAP1 PUSH2 0xB42 JUMP JUMPDEST SWAP2 SWAP1 POP SSTORE POP PUSH1 0x40 MLOAD DUP1 PUSH1 0xA0 ADD PUSH1 0x40 MSTORE DUP1 PUSH1 0x1 SLOAD DUP2 MSTORE PUSH1 0x20 ADD DUP4 DUP2 MSTORE PUSH1 0x20 ADD DUP3 DUP2 MSTORE PUSH1 0x20 ADD CALLER PUSH20 0xFFFFFFFFFFFFFFFFFFFFFFFFFFFFFFFFFFFFFFFF AND DUP2 MSTORE PUSH1 0x20 ADD PUSH1 0x0 ISZERO ISZERO DUP2 MSTORE POP PUSH1 0x2 PUSH1 0x0 PUSH1 0x1 SLOAD DUP2 MSTORE PUSH1 0x20 ADD SWAP1 DUP2 MSTORE PUSH1 0x20 ADD PUSH1 0x0 KECCAK256 PUSH1 0x0 DUP3 ADD MLOAD DUP2 PUSH1 0x0 ADD SSTORE PUSH1 0x20 DUP3 ADD MLOAD DUP2 PUSH1 0x1 ADD SWAP1 DUP1 MLOAD SWAP1 PUSH1 0x20 ADD SWAP1 PUSH2 0x209 SWAP3 SWAP2 SWAP1 PUSH2 0x59A JUMP JUMPDEST POP PUSH1 0x40 DUP3 ADD MLOAD DUP2 PUSH1 0x2 ADD SSTORE PUSH1 0x60 DUP3 ADD MLOAD DUP2 PUSH1 0x3 ADD PUSH1 0x0 PUSH2 0x100 EXP DUP2 SLOAD DUP2 PUSH20 0xFFFFFFFFFFFFFFFFFFFFFFFFFFFFFFFFFFFFFFFF MUL NOT AND SWAP1 DUP4 PUSH20 0xFFFFFFFFFFFFFFFFFFFFFFFFFFFFFFFFFFFFFFFF AND MUL OR SWAP1 SSTORE POP PUSH1 0x80 DUP3 ADD MLOAD DUP2 PUSH1 0x3 ADD PUSH1 0x14 PUSH2 0x100 EXP DUP2 SLOAD DUP2 PUSH1 0xFF MUL NOT AND SWAP1 DUP4 ISZERO ISZERO MUL OR SWAP1 SSTORE POP SWAP1 POP POP PUSH32 0x16244E47AF8A7D2C923FAA2CAB44315C0514C7AA830682BBB9CC8F0D37AD7548 PUSH1 0x1 SLOAD DUP4 DUP4 CALLER PUSH1 0x40 MLOAD PUSH2 0x2B5 SWAP5 SWAP4 SWAP3 SWAP2 SWAP1 PUSH2 0x92B JUMP JUMPDEST PUSH1 0x40 MLOAD DUP1 SWAP2 SUB SWAP1 LOG1 POP POP JUMP JUMPDEST PUSH1 0x0 DUP1 SLOAD SWAP1 PUSH2 0x100 EXP SWAP1 DIV PUSH20 0xFFFFFFFFFFFFFFFFFFFFFFFFFFFFFFFFFFFFFFFF AND DUP2 JUMP JUMPDEST PUSH1 0x2 PUSH1 0x20 MSTORE DUP1 PUSH1 0x0 MSTORE PUSH1 0x40 PUSH1 0x0 KECCAK256 PUSH1 0x0 SWAP2 POP SWAP1 POP DUP1 PUSH1 0x0 ADD SLOAD SWAP1 DUP1 PUSH1 0x1 ADD DUP1 SLOAD PUSH2 0x30E SWAP1 PUSH2 0xADF JUMP JUMPDEST DUP1 PUSH1 0x1F ADD PUSH1 0x20 DUP1 SWAP2 DIV MUL PUSH1 0x20 ADD PUSH1 0x40 MLOAD SWAP1 DUP2 ADD PUSH1 0x40 MSTORE DUP1 SWAP3 SWAP2 SWAP1 DUP2 DUP2 MSTORE PUSH1 0x20 ADD DUP3 DUP1 SLOAD PUSH2 0x33A SWAP1 PUSH2 0xADF JUMP JUMPDEST DUP1 ISZERO PUSH2 0x387 JUMPI DUP1 PUSH1 0x1F LT PUSH2 0x35C JUMPI PUSH2 0x100 DUP1 DUP4 SLOAD DIV MUL DUP4 MSTORE SWAP2 PUSH1 0x20 ADD SWAP2 PUSH2 0x387 JUMP JUMPDEST DUP3 ADD SWAP2 SWAP1 PUSH1 0x0 MSTORE PUSH1 0x20 PUSH1 0x0 KECCAK256 SWAP1 JUMPDEST DUP2 SLOAD DUP2 MSTORE SWAP1 PUSH1 0x1 ADD SWAP1 PUSH1 0x20 ADD DUP1 DUP4 GT PUSH2 0x36A JUMPI DUP3 SWAP1 SUB PUSH1 0x1F AND DUP3 ADD SWAP2 JUMPDEST POP POP POP POP POP SWAP1 DUP1 PUSH1 0x2 ADD SLOAD SWAP1 DUP1 PUSH1 0x3 ADD PUSH1 0x0 SWAP1 SLOAD SWAP1 PUSH2 0x100 EXP SWAP1 DIV PUSH20 0xFFFFFFFFFFFFFFFFFFFFFFFFFFFFFFFFFFFFFFFF AND SWAP1 DUP1 PUSH1 0x3 ADD PUSH1 0x14 SWAP1 SLOAD SWAP1 PUSH2 0x100 EXP SWAP1 DIV PUSH1 0xFF AND SWAP1 POP DUP6 JUMP JUMPDEST PUSH1 0x0 PUSH1 0x2 PUSH1 0x0 DUP4 DUP2 MSTORE PUSH1 0x20 ADD SWAP1 DUP2 MSTORE PUSH1 0x20 ADD PUSH1 0x0 KECCAK256 SWAP1 POP PUSH1 0x0 DUP3 GT DUP1 ISZERO PUSH2 0x3F9 JUMPI POP PUSH1 0x1 SLOAD DUP3 GT ISZERO JUMPDEST PUSH2 0x438 JUMPI PUSH1 0x40 MLOAD PUSH32 0x8C379A000000000000000000000000000000000000000000000000000000000 DUP2 MSTORE PUSH1 0x4 ADD PUSH2 0x42F SWAP1 PUSH2 0x8A7 JUMP JUMPDEST PUSH1 0x40 MLOAD DUP1 SWAP2 SUB SWAP1 REVERT JUMPDEST DUP1 PUSH1 0x3 ADD PUSH1 0x14 SWAP1 SLOAD SWAP1 PUSH2 0x100 EXP SWAP1 DIV PUSH1 0xFF AND ISZERO PUSH2 0x48A JUMPI PUSH1 0x40 MLOAD PUSH32 0x8C379A000000000000000000000000000000000000000000000000000000000 DUP2 MSTORE PUSH1 0x4 ADD PUSH2 0x481 SWAP1 PUSH2 0x8C7 JUMP JUMPDEST PUSH1 0x40 MLOAD DUP1 SWAP2 SUB SWAP1 REVERT JUMPDEST DUP1 PUSH1 0x2 ADD SLOAD CALLVALUE LT ISZERO PUSH2 0x4D1 JUMPI PUSH1 0x40 MLOAD PUSH32 0x8C379A000000000000000000000000000000000000000000000000000000000 DUP2 MSTORE PUSH1 0x4 ADD PUSH2 0x4C8 SWAP1 PUSH2 0x887 JUMP JUMPDEST PUSH1 0x40 MLOAD DUP1 SWAP2 SUB SWAP1 REVERT JUMPDEST DUP1 PUSH1 0x3 ADD PUSH1 0x0 SWAP1 SLOAD SWAP1 PUSH2 0x100 EXP SWAP1 DIV PUSH20 0xFFFFFFFFFFFFFFFFFFFFFFFFFFFFFFFFFFFFFFFF AND PUSH20 0xFFFFFFFFFFFFFFFFFFFFFFFFFFFFFFFFFFFFFFFF AND PUSH2 0x8FC DUP3 PUSH1 0x2 ADD SLOAD SWAP1 DUP2 ISZERO MUL SWAP1 PUSH1 0x40 MLOAD PUSH1 0x0 PUSH1 0x40 MLOAD DUP1 DUP4 SUB DUP2 DUP6 DUP9 DUP9 CALL SWAP4 POP POP POP POP ISZERO DUP1 ISZERO PUSH2 0x53F JUMPI RETURNDATASIZE PUSH1 0x0 DUP1 RETURNDATACOPY RETURNDATASIZE PUSH1 0x0 REVERT JUMPDEST POP PUSH1 0x1 DUP2 PUSH1 0x3 ADD PUSH1 0x14 PUSH2 0x100 EXP DUP2 SLOAD DUP2 PUSH1 0xFF MUL NOT AND SWAP1 DUP4 ISZERO ISZERO MUL OR SWAP1 SSTORE POP PUSH32 0x7DE4035CED290BE6D7724645D43BAD448B5D8CC76743FF4DA172C2D8E1CAA0F5 DUP3 CALLER PUSH1 0x40 MLOAD PUSH2 0x58E SWAP3 SWAP2 SWAP1 PUSH2 0x902 JUMP JUMPDEST PUSH1 0x40 MLOAD DUP1 SWAP2 SUB SWAP1 LOG1 POP POP JUMP JUMPDEST DUP3 DUP1 SLOAD PUSH2 0x5A6 SWAP1 PUSH2 0xADF JUMP JUMPDEST SWAP1 PUSH1 0x0 MSTORE PUSH1 0x20 PUSH1 0x0 KECCAK256 SWAP1 PUSH1 0x1F ADD PUSH1 0x20 SWAP1 DIV DUP2 ADD SWAP3 DUP3 PUSH2 0x5C8 JUMPI PUSH1 0x0 DUP6 SSTORE PUSH2 0x60F JUMP JUMPDEST DUP3 PUSH1 0x1F LT PUSH2 0x5E1 JUMPI DUP1 MLOAD PUSH1 0xFF NOT AND DUP4 DUP1 ADD OR DUP6 SSTORE PUSH2 0x60F JUMP JUMPDEST DUP3 DUP1 ADD PUSH1 0x1 ADD DUP6 SSTORE DUP3 ISZERO PUSH2 0x60F JUMPI SWAP2 DUP3 ADD JUMPDEST DUP3 DUP2 GT ISZERO PUSH2 0x60E JUMPI DUP3 MLOAD DUP3 SSTORE SWAP2 PUSH1 0x20 ADD SWAP2 SWAP1 PUSH1 0x1 ADD SWAP1 PUSH2 0x5F3 JUMP JUMPDEST JUMPDEST POP SWAP1 POP PUSH2 0x61C SWAP2 SWAP1 PUSH2 0x620 JUMP JUMPDEST POP SWAP1 JUMP JUMPDEST JUMPDEST DUP1 DUP3 GT ISZERO PUSH2 0x639 JUMPI PUSH1 0x0 DUP2 PUSH1 0x0 SWAP1 SSTORE POP PUSH1 0x1 ADD PUSH2 0x621 JUMP JUMPDEST POP SWAP1 JUMP JUMPDEST PUSH1 0x0 PUSH2 0x650 PUSH2 0x64B DUP5 PUSH2 0x9F6 JUMP JUMPDEST PUSH2 0x9D1 JUMP JUMPDEST SWAP1 POP DUP3 DUP2 MSTORE PUSH1 0x20 DUP2 ADD DUP5 DUP5 DUP5 ADD GT ISZERO PUSH2 0x66C JUMPI PUSH2 0x66B PUSH2 0xC1D JUMP JUMPDEST JUMPDEST PUSH2 0x677 DUP5 DUP3 DUP6 PUSH2 0xA9D JUMP JUMPDEST POP SWAP4 SWAP3 POP POP POP JUMP JUMPDEST PUSH1 0x0 DUP3 PUSH1 0x1F DUP4 ADD SLT PUSH2 0x694 JUMPI PUSH2 0x693 PUSH2 0xC18 JUMP JUMPDEST JUMPDEST DUP2 CALLDATALOAD PUSH2 0x6A4 DUP5 DUP3 PUSH1 0x20 DUP7 ADD PUSH2 0x63D JUMP JUMPDEST SWAP2 POP POP SWAP3 SWAP2 POP POP JUMP JUMPDEST PUSH1 0x0 DUP2 CALLDATALOAD SWAP1 POP PUSH2 0x6BC DUP2 PUSH2 0xCE1 JUMP JUMPDEST SWAP3 SWAP2 POP POP JUMP JUMPDEST PUSH1 0x0 DUP1 PUSH1 0x40 DUP4 DUP6 SUB SLT ISZERO PUSH2 0x6D9 JUMPI PUSH2 0x6D8 PUSH2 0xC27 JUMP JUMPDEST JUMPDEST PUSH1 0x0 DUP4 ADD CALLDATALOAD PUSH8 0xFFFFFFFFFFFFFFFF DUP2 GT ISZERO PUSH2 0x6F7 JUMPI PUSH2 0x6F6 PUSH2 0xC22 JUMP JUMPDEST JUMPDEST PUSH2 0x703 DUP6 DUP3 DUP7 ADD PUSH2 0x67F JUMP JUMPDEST SWAP3 POP POP PUSH1 0x20 PUSH2 0x714 DUP6 DUP3 DUP7 ADD PUSH2 0x6AD JUMP JUMPDEST SWAP2 POP POP SWAP3 POP SWAP3 SWAP1 POP JUMP JUMPDEST PUSH1 0x0 PUSH1 0x20 DUP3 DUP5 SUB SLT ISZERO PUSH2 0x734 JUMPI PUSH2 0x733 PUSH2 0xC27 JUMP JUMPDEST JUMPDEST PUSH1 0x0 PUSH2 0x742 DUP5 DUP3 DUP6 ADD PUSH2 0x6AD JUMP JUMPDEST SWAP2 POP POP SWAP3 SWAP2 POP POP JUMP JUMPDEST PUSH2 0x754 DUP2 PUSH2 0xA55 JUMP JUMPDEST DUP3 MSTORE POP POP JUMP JUMPDEST PUSH2 0x763 DUP2 PUSH2 0xA43 JUMP JUMPDEST DUP3 MSTORE POP POP JUMP JUMPDEST PUSH2 0x772 DUP2 PUSH2 0xA67 JUMP JUMPDEST DUP3 MSTORE POP POP JUMP JUMPDEST PUSH1 0x0 PUSH2 0x783 DUP3 PUSH2 0xA27 JUMP JUMPDEST PUSH2 0x78D DUP2 DUP6 PUSH2 0xA32 JUMP JUMPDEST SWAP4 POP PUSH2 0x79D DUP2 DUP6 PUSH1 0x20 DUP7 ADD PUSH2 0xAAC JUMP JUMPDEST PUSH2 0x7A6 DUP2 PUSH2 0xC2C JUMP JUMPDEST DUP5 ADD SWAP2 POP POP SWAP3 SWAP2 POP POP JUMP JUMPDEST PUSH1 0x0 PUSH2 0x7BE PUSH1 0x1F DUP4 PUSH2 0xA32 JUMP JUMPDEST SWAP2 POP PUSH2 0x7C9 DUP3 PUSH2 0xC3D JUMP JUMPDEST PUSH1 0x20 DUP3 ADD SWAP1 POP SWAP2 SWAP1 POP JUMP JUMPDEST PUSH1 0x0 PUSH2 0x7E1 PUSH1 0x10 DUP4 PUSH2 0xA32 JUMP JUMPDEST SWAP2 POP PUSH2 0x7EC DUP3 PUSH2 0xC66 JUMP JUMPDEST PUSH1 0x20 DUP3 ADD SWAP1 POP SWAP2 SWAP1 POP JUMP JUMPDEST PUSH1 0x0 PUSH2 0x804 PUSH1 0x13 DUP4 PUSH2 0xA32 JUMP JUMPDEST SWAP2 POP PUSH2 0x80F DUP3 PUSH2 0xC8F JUMP JUMPDEST PUSH1 0x20 DUP3 ADD SWAP1 POP SWAP2 SWAP1 POP JUMP JUMPDEST PUSH1 0x0 PUSH2 0x827 PUSH1 0x11 DUP4 PUSH2 0xA32 JUMP JUMPDEST SWAP2 POP PUSH2 0x832 DUP3 PUSH2 0xCB8 JUMP JUMPDEST PUSH1 0x20 DUP3 ADD SWAP1 POP SWAP2 SWAP1 POP JUMP JUMPDEST PUSH2 0x846 DUP2 PUSH2 0xA93 JUMP JUMPDEST DUP3 MSTORE POP POP JUMP JUMPDEST PUSH1 0x0 PUSH1 0x20 DUP3 ADD SWAP1 POP PUSH2 0x861 PUSH1 0x0 DUP4 ADD DUP5 PUSH2 0x75A JUMP JUMPDEST SWAP3 SWAP2 POP POP JUMP JUMPDEST PUSH1 0x0 PUSH1 0x20 DUP3 ADD SWAP1 POP DUP2 DUP2 SUB PUSH1 0x0 DUP4 ADD MSTORE PUSH2 0x880 DUP2 PUSH2 0x7B1 JUMP JUMPDEST SWAP1 POP SWAP2 SWAP1 POP JUMP JUMPDEST PUSH1 0x0 PUSH1 0x20 DUP3 ADD SWAP1 POP DUP2 DUP2 SUB PUSH1 0x0 DUP4 ADD MSTORE PUSH2 0x8A0 DUP2 PUSH2 0x7D4 JUMP JUMPDEST SWAP1 POP SWAP2 SWAP1 POP JUMP JUMPDEST PUSH1 0x0 PUSH1 0x20 DUP3 ADD SWAP1 POP DUP2 DUP2 SUB PUSH1 0x0 DUP4 ADD MSTORE PUSH2 0x8C0 DUP2 PUSH2 0x7F7 JUMP JUMPDEST SWAP1 POP SWAP2 SWAP1 POP JUMP JUMPDEST PUSH1 0x0 PUSH1 0x20 DUP3 ADD SWAP1 POP DUP2 DUP2 SUB PUSH1 0x0 DUP4 ADD MSTORE PUSH2 0x8E0 DUP2 PUSH2 0x81A JUMP JUMPDEST SWAP1 POP SWAP2 SWAP1 POP JUMP JUMPDEST PUSH1 0x0 PUSH1 0x20 DUP3 ADD SWAP1 POP PUSH2 0x8FC PUSH1 0x0 DUP4 ADD DUP5 PUSH2 0x83D JUMP JUMPDEST SWAP3 SWAP2 POP POP JUMP JUMPDEST PUSH1 0x0 PUSH1 0x40 DUP3 ADD SWAP1 POP PUSH2 0x917 PUSH1 0x0 DUP4 ADD DUP6 PUSH2 0x83D JUMP JUMPDEST PUSH2 0x924 PUSH1 0x20 DUP4 ADD DUP5 PUSH2 0x75A JUMP JUMPDEST SWAP4 SWAP3 POP POP POP JUMP JUMPDEST PUSH1 0x0 PUSH1 0x80 DUP3 ADD SWAP1 POP PUSH2 0x940 PUSH1 0x0 DUP4 ADD DUP8 PUSH2 0x83D JUMP JUMPDEST DUP2 DUP2 SUB PUSH1 0x20 DUP4 ADD MSTORE PUSH2 0x952 DUP2 DUP7 PUSH2 0x778 JUMP JUMPDEST SWAP1 POP PUSH2 0x961 PUSH1 0x40 DUP4 ADD DUP6 PUSH2 0x83D JUMP JUMPDEST PUSH2 0x96E PUSH1 0x60 DUP4 ADD DUP5 PUSH2 0x75A JUMP JUMPDEST SWAP6 SWAP5 POP POP POP POP POP JUMP JUMPDEST PUSH1 0x0 PUSH1 0xA0 DUP3 ADD SWAP1 POP PUSH2 0x98C PUSH1 0x0 DUP4 ADD DUP9 PUSH2 0x83D JUMP JUMPDEST DUP2 DUP2 SUB PUSH1 0x20 DUP4 ADD MSTORE PUSH2 0x99E DUP2 DUP8 PUSH2 0x778 JUMP JUMPDEST SWAP1 POP PUSH2 0x9AD PUSH1 0x40 DUP4 ADD DUP7 PUSH2 0x83D JUMP JUMPDEST PUSH2 0x9BA PUSH1 0x60 DUP4 ADD DUP6 PUSH2 0x74B JUMP JUMPDEST PUSH2 0x9C7 PUSH1 0x80 DUP4 ADD DUP5 PUSH2 0x769 JUMP JUMPDEST SWAP7 SWAP6 POP POP POP POP POP POP JUMP JUMPDEST PUSH1 0x0 PUSH2 0x9DB PUSH2 0x9EC JUMP JUMPDEST SWAP1 POP PUSH2 0x9E7 DUP3 DUP3 PUSH2 0xB11 JUMP JUMPDEST SWAP2 SWAP1 POP JUMP JUMPDEST PUSH1 0x0 PUSH1 0x40 MLOAD SWAP1 POP SWAP1 JUMP JUMPDEST PUSH1 0x0 PUSH8 0xFFFFFFFFFFFFFFFF DUP3 GT ISZERO PUSH2 0xA11 JUMPI PUSH2 0xA10 PUSH2 0xBE9 JUMP JUMPDEST JUMPDEST PUSH2 0xA1A DUP3 PUSH2 0xC2C JUMP JUMPDEST SWAP1 POP PUSH1 0x20 DUP2 ADD SWAP1 POP SWAP2 SWAP1 POP JUMP JUMPDEST PUSH1 0x0 DUP2 MLOAD SWAP1 POP SWAP2 SWAP1 POP JUMP JUMPDEST PUSH1 0x0 DUP3 DUP3 MSTORE PUSH1 0x20 DUP3 ADD SWAP1 POP SWAP3 SWAP2 POP POP JUMP JUMPDEST PUSH1 0x0 PUSH2 0xA4E DUP3 PUSH2 0xA73 JUMP JUMPDEST SWAP1 POP SWAP2 SWAP1 POP JUMP JUMPDEST PUSH1 0x0 PUSH2 0xA60 DUP3 PUSH2 0xA73 JUMP JUMPDEST SWAP1 POP SWAP2 SWAP1 POP JUMP JUMPDEST PUSH1 0x0 DUP2 ISZERO ISZERO SWAP1 POP SWAP2 SWAP1 POP JUMP JUMPDEST PUSH1 0x0 PUSH20 0xFFFFFFFFFFFFFFFFFFFFFFFFFFFFFFFFFFFFFFFF DUP3 AND SWAP1 POP SWAP2 SWAP1 POP JUMP JUMPDEST PUSH1 0x0 DUP2 SWAP1 POP SWAP2 SWAP1 POP JUMP JUMPDEST DUP3 DUP2 DUP4 CALLDATACOPY PUSH1 0x0 DUP4 DUP4 ADD MSTORE POP POP POP JUMP JUMPDEST PUSH1 0x0 JUMPDEST DUP4 DUP2 LT ISZERO PUSH2 0xACA JUMPI DUP1 DUP3 ADD MLOAD DUP2 DUP5 ADD MSTORE PUSH1 0x20 DUP2 ADD SWAP1 POP PUSH2 0xAAF JUMP JUMPDEST DUP4 DUP2 GT ISZERO PUSH2 0xAD9 JUMPI PUSH1 0x0 DUP5 DUP5 ADD MSTORE JUMPDEST POP POP POP POP JUMP JUMPDEST PUSH1 0x0 PUSH1 0x2 DUP3 DIV SWAP1 POP PUSH1 0x1 DUP3 AND DUP1 PUSH2 0xAF7 JUMPI PUSH1 0x7F DUP3 AND SWAP2 POP JUMPDEST PUSH1 0x20 DUP3 LT DUP2 EQ ISZERO PUSH2 0xB0B JUMPI PUSH2 0xB0A PUSH2 0xBBA JUMP JUMPDEST JUMPDEST POP SWAP2 SWAP1 POP JUMP JUMPDEST PUSH2 0xB1A DUP3 PUSH2 0xC2C JUMP JUMPDEST DUP2 ADD DUP2 DUP2 LT PUSH8 0xFFFFFFFFFFFFFFFF DUP3 GT OR ISZERO PUSH2 0xB39 JUMPI PUSH2 0xB38 PUSH2 0xBE9 JUMP JUMPDEST JUMPDEST DUP1 PUSH1 0x40 MSTORE POP POP POP JUMP JUMPDEST PUSH1 0x0 PUSH2 0xB4D DUP3 PUSH2 0xA93 JUMP JUMPDEST SWAP2 POP PUSH32 0xFFFFFFFFFFFFFFFFFFFFFFFFFFFFFFFFFFFFFFFFFFFFFFFFFFFFFFFFFFFFFFFF DUP3 EQ ISZERO PUSH2 0xB80 JUMPI PUSH2 0xB7F PUSH2 0xB8B JUMP JUMPDEST JUMPDEST PUSH1 0x1 DUP3 ADD SWAP1 POP SWAP2 SWAP1 POP JUMP JUMPDEST PUSH32 0x4E487B7100000000000000000000000000000000000000000000000000000000 PUSH1 0x0 MSTORE PUSH1 0x11 PUSH1 0x4 MSTORE PUSH1 0x24 PUSH1 0x0 REVERT JUMPDEST PUSH32 0x4E487B7100000000000000000000000000000000000000000000000000000000 PUSH1 0x0 MSTORE PUSH1 0x22 PUSH1 0x4 MSTORE PUSH1 0x24 PUSH1 0x0 REVERT JUMPDEST PUSH32 0x4E487B7100000000000000000000000000000000000000000000000000000000 PUSH1 0x0 MSTORE PUSH1 0x41 PUSH1 0x4 MSTORE PUSH1 0x24 PUSH1 0x0 REVERT JUMPDEST PUSH1 0x0 DUP1 REVERT JUMPDEST PUSH1 0x0 DUP1 REVERT JUMPDEST PUSH1 0x0 DUP1 REVERT JUMPDEST PUSH1 0x0 DUP1 REVERT JUMPDEST PUSH1 0x0 PUSH1 0x1F NOT PUSH1 0x1F DUP4 ADD AND SWAP1 POP SWAP2 SWAP1 POP JUMP JUMPDEST PUSH32 0x5072696365206D7573742062652067726561746572207468616E207A65726F00 PUSH1 0x0 DUP3 ADD MSTORE POP JUMP JUMPDEST PUSH32 0x4E6F7420656E6F75676820457468657200000000000000000000000000000000 PUSH1 0x0 DUP3 ADD MSTORE POP JUMP JUMPDEST PUSH32 0x4974656D20646F6573206E6F7420657869737400000000000000000000000000 PUSH1 0x0 DUP3 ADD MSTORE POP JUMP JUMPDEST PUSH32 0x4974656D20616C726561647920736F6C64000000000000000000000000000000 PUSH1 0x0 DUP3 ADD MSTORE POP JUMP JUMPDEST PUSH2 0xCEA DUP2 PUSH2 0xA93 JUMP JUMPDEST DUP2 EQ PUSH2 0xCF5 JUMPI PUSH1 0x0 DUP1 REVERT JUMPDEST POP JUMP INVALID LOG2 PUSH5 0x6970667358 0x22 SLT KECCAK256 SWAP12 PUSH22 0x66A05F098C67B02C9AB1747B6C439068B3DE5850A1A5 0x21 0x2A 0xB8 ADDRESS LOG2 DUP15 PUSH24 0x3064736F6C63430008070033000000000000000000000000 "
				},
				"gasEstimates": {
					"creation": {
						"codeDepositCost": "674800",
						"executionCost": "24974",
						"totalCost": "699774"
					},
					"external": {
						"buyItem(uint256)": "infinite",
						"itemCount()": "2407",
						"items(uint256)": "infinite",
						"listItem(string,uint256)": "infinite",
						"owner()": "2533"
					}
				},
				"methodIdentifiers": {
					"buyItem(uint256)": "e7fb74c7",
					"itemCount()": "6bfb0d01",
					"items(uint256)": "bfb231d2",
					"listItem(string,uint256)": "8511c937",
					"owner()": "8da5cb5b"
				}
			},
			"storageLayout": {
				"storage": [
					{
						"astId": 3,
						"contract": "marketPlace.sol:Marketplace",
						"label": "owner",
						"offset": 0,
						"slot": "0",
						"type": "t_address"
					},
					{
						"astId": 5,
						"contract": "marketPlace.sol:Marketplace",
						"label": "itemCount",
						"offset": 0,
						"slot": "1",
						"type": "t_uint256"
					},
					{
						"astId": 10,
						"contract": "marketPlace.sol:Marketplace",
						"label": "items",
						"offset": 0,
						"slot": "2",
						"type": "t_mapping(t_uint256,t_struct(Item)21_storage)"
					}
				],
				"types": {
					"t_address": {
						"encoding": "inplace",
						"label": "address",
						"numberOfBytes": "20"
					},
					"t_address_payable": {
						"encoding": "inplace",
						"label": "address payable",
						"numberOfBytes": "20"
					},
					"t_bool": {
						"encoding": "inplace",
						"label": "bool",
						"numberOfBytes": "1"
					},
					"t_mapping(t_uint256,t_struct(Item)21_storage)": {
						"encoding": "mapping",
						"key": "t_uint256",
						"label": "mapping(uint256 => struct Marketplace.Item)",
						"numberOfBytes": "32",
						"value": "t_struct(Item)21_storage"
					},
					"t_string_storage": {
						"encoding": "bytes",
						"label": "string",
						"numberOfBytes": "32"
					},
					"t_struct(Item)21_storage": {
						"encoding": "inplace",
						"label": "struct Marketplace.Item",
						"members": [
							{
								"astId": 12,
								"contract": "marketPlace.sol:Marketplace",
								"label": "id",
								"offset": 0,
								"slot": "0",
								"type": "t_uint256"
							},
							{
								"astId": 14,
								"contract": "marketPlace.sol:Marketplace",
								"label": "name",
								"offset": 0,
								"slot": "1",
								"type": "t_string_storage"
							},
							{
								"astId": 16,
								"contract": "marketPlace.sol:Marketplace",
								"label": "price",
								"offset": 0,
								"slot": "2",
								"type": "t_uint256"
							},
							{
								"astId": 18,
								"contract": "marketPlace.sol:Marketplace",
								"label": "seller",
								"offset": 0,
								"slot": "3",
								"type": "t_address_payable"
							},
							{
								"astId": 20,
								"contract": "marketPlace.sol:Marketplace",
								"label": "sold",
								"offset": 20,
								"slot": "3",
								"type": "t_bool"
							}
						],
						"numberOfBytes": "128"
					},
					"t_uint256": {
						"encoding": "inplace",
						"label": "uint256",
						"numberOfBytes": "32"
					}
				}
			},
			"userdoc": {
				"kind": "user",
				"methods": {},
				"version": 1
			}
		}
	}
}