{
    "contractName": "Event",
    "abi": [
        {
            "anonymous": false,
            "inputs": [
                {
                    "indexed": true,
                    "internalType": "address",
                    "name": "user",
                    "type": "address"
                },
                {
                    "indexed": false,
                    "internalType": "uint256",
                    "name": "timestamp",
                    "type": "uint256"
                },
                {
                    "indexed": false,
                    "internalType": "string",
                    "name": "username",
                    "type": "string"
                }
            ],
            "name": "userRegistered",
            "type": "event"
        },
        {
            "inputs": [
                {
                    "internalType": "string",
                    "name": "_username",
                    "type": "string"
                }
            ],
            "name": "registerUser",
            "outputs": [],
            "stateMutability": "nonpayable",
            "type": "function"
        }
    ],
    "bytecode": "60808060405234601557610154908161001a8239f35b5f80fdfe6080600436101561000e575f80fd5b5f3560e01c63704f1b9414610021575f80fd5b346101065760203660031901126101065760043567ffffffffffffffff811161010657366023820112156101065780600401359167ffffffffffffffff831161010a57601f8301601f19908116603f0116810167ffffffffffffffff81118282101761010a5760405282815260208101923660248285010111610106576020815f9260247fb34015fe64a2031a10344c0394dc60fb94a2c9582296f5a4b3cf2b4e07e155d396018737830101526040519042825260406020830152518093816040840152606083015e5f606084830101526060813394601f80199101168101030190a2005b5f80fd5b634e487b7160e01b5f52604160045260245ffdfea2646970667358221220029e76fd17232a1d420fa085c76ddf1a6ed867a788401cee098079e6e857f08864736f6c634300081c0033",
    "sourcePath": "c:/Users/Lenovo/OneDrive/Desktop/Dev/solidity/Events/Event.sol",
    "compiler": {
        "name": "solc",
        "version": "0.8.28+commit.7893614a"
    },
    "functionHashes": {
        "registerUser(string)": "704f1b94"
    },
    "gasEstimates": {
        "creation": {
            "codeDepositCost": "68000",
            "executionCost": "123",
            "totalCost": "68123"
        },
        "external": {
            "registerUser(string)": "infinite"
        }
    }
}