{
    "contractName": "IndexedEvent",
    "abi": [
        {
            "anonymous": false,
            "inputs": [
                {
                    "indexed": true,
                    "internalType": "address",
                    "name": "from",
                    "type": "address"
                },
                {
                    "indexed": true,
                    "internalType": "address",
                    "name": "to",
                    "type": "address"
                },
                {
                    "indexed": false,
                    "internalType": "uint256",
                    "name": "amount",
                    "type": "uint256"
                }
            ],
            "name": "transfer",
            "type": "event"
        },
        {
            "inputs": [
                {
                    "internalType": "address",
                    "name": "_to",
                    "type": "address"
                },
                {
                    "internalType": "uint256",
                    "name": "_amount",
                    "type": "uint256"
                }
            ],
            "name": "transferFunds",
            "outputs": [],
            "stateMutability": "nonpayable",
            "type": "function"
        }
    ],
    "bytecode": "6080806040523460135760ae908160188239f35b5f80fdfe60808060405260043610156011575f80fd5b5f3560e01c63990dc9db146023575f80fd5b3460745760403660031901126074576004356001600160a01b038116919082900360745760243581527fbeabacc8ffedac16e9a60acdb2ca743d80c2ebb44977a93fa8e483c74d2b35a860203392a3005b5f80fdfea2646970667358221220286475c9e1c8da088a6a229b521bd01f952d279301498d1dda49162f13f5672f64736f6c634300081c0033",
    "sourcePath": "c:/Users/Lenovo/OneDrive/Desktop/Dev/solidity/Events/IndexedEvent.sol",
    "compiler": {
        "name": "solc",
        "version": "0.8.28+commit.7893614a"
    },
    "functionHashes": {
        "transferFunds(address,uint256)": "990dc9db"
    },
    "gasEstimates": {
        "creation": {
            "codeDepositCost": "34800",
            "executionCost": "93",
            "totalCost": "34893"
        },
        "external": {
            "transferFunds(address,uint256)": "1962"
        }
    }
}