{
    "contractName": "SimpleBank",
    "abi": [
        {
            "anonymous": false,
            "inputs": [
                {
                    "indexed": true,
                    "internalType": "address",
                    "name": "account",
                    "type": "address"
                },
                {
                    "indexed": false,
                    "internalType": "uint256",
                    "name": "amount",
                    "type": "uint256"
                }
            ],
            "name": "Deposit",
            "type": "event"
        },
        {
            "anonymous": false,
            "inputs": [
                {
                    "indexed": true,
                    "internalType": "address",
                    "name": "account",
                    "type": "address"
                },
                {
                    "indexed": false,
                    "internalType": "uint256",
                    "name": "amount",
                    "type": "uint256"
                }
            ],
            "name": "Withdraw",
            "type": "event"
        },
        {
            "inputs": [
                {
                    "internalType": "address",
                    "name": "",
                    "type": "address"
                }
            ],
            "name": "balances",
            "outputs": [
                {
                    "internalType": "uint256",
                    "name": "",
                    "type": "uint256"
                }
            ],
            "stateMutability": "view",
            "type": "function"
        },
        {
            "inputs": [],
            "name": "deposit",
            "outputs": [],
            "stateMutability": "payable",
            "type": "function"
        },
        {
            "inputs": [
                {
                    "internalType": "uint256",
                    "name": "_amount",
                    "type": "uint256"
                }
            ],
            "name": "withdraw",
            "outputs": [],
            "stateMutability": "nonpayable",
            "type": "function"
        }
    ],
    "bytecode": "6080806040523460155761022b908161001a8239f35b5f80fdfe6080806040526004361015610012575f80fd5b5f3560e01c90816327e235e3146101bd575080632e1a7d4d146100e95763d0e30db01461003d575f80fd5b5f3660031901126100e55734156100a957335f525f60205260405f2080549034820180921161009557556040513481527fe1fffcc4923d04b559f4d29a8bfc6cda04eb5b0d3c460751c2402c5c5cc9109c60203392a2005b634e487b7160e01b5f52601160045260245ffd5b60405162461bcd60e51b815260206004820152601460248201527326bab9ba1039b2b7321039b7b6b29022ba3432b960611b6044820152606490fd5b5f80fd5b346100e55760203660031901126100e557600435335f525f6020528060405f20541061018157335f525f60205260405f208054908282039182116100955755805f8115610178575b5f80809381933390f11561016d576040519081527f884edad9ce6fa2440d8a54cc123490eb96d2768479d49ff9c7366125a942436460203392a2005b6040513d5f823e3d90fd5b506108fc610131565b60405162461bcd60e51b8152602060048201526014602482015273496e73756666696369656e742062616c616e636560601b6044820152606490fd5b346100e55760203660031901126100e5576004356001600160a01b03811691908290036100e5576020915f525f825260405f20548152f3fea26469706673582212207098bcc836bb4ac6dcec21006585ddac8acbcae2007b1e9289609a8bfeb298b564736f6c634300081c0033",
    "sourcePath": "c:/Users/Lenovo/OneDrive/Desktop/Dev/solidity/Events/simpleBank.sol",
    "compiler": {
        "name": "solc",
        "version": "0.8.28+commit.7893614a"
    },
    "functionHashes": {
        "balances(address)": "27e235e3",
        "deposit()": "d0e30db0",
        "withdraw(uint256)": "2e1a7d4d"
    },
    "gasEstimates": {
        "creation": {
            "codeDepositCost": "111000",
            "executionCost": "165",
            "totalCost": "111165"
        },
        "external": {
            "balances(address)": "2361",
            "deposit()": "25883",
            "withdraw(uint256)": "infinite"
        }
    }
}